{
	"Aution.sol": {
		"allowanceContract": {
			"abi": [
				{
					"inputs": [],
					"stateMutability": "nonpayable",
					"type": "constructor"
				},
				{
					"anonymous": false,
					"inputs": [
						{
							"indexed": false,
							"internalType": "string",
							"name": "_description",
							"type": "string"
						},
						{
							"indexed": false,
							"internalType": "address",
							"name": "_to",
							"type": "address"
						},
						{
							"indexed": false,
							"internalType": "uint256",
							"name": "_amt",
							"type": "uint256"
						}
					],
					"name": "log",
					"type": "event"
				},
				{
					"inputs": [
						{
							"internalType": "address",
							"name": "_to",
							"type": "address"
						},
						{
							"internalType": "uint256",
							"name": "_amt",
							"type": "uint256"
						}
					],
					"name": "addAllowance",
					"outputs": [],
					"stateMutability": "nonpayable",
					"type": "function"
				},
				{
					"inputs": [
						{
							"internalType": "address",
							"name": "",
							"type": "address"
						}
					],
					"name": "allowances",
					"outputs": [
						{
							"internalType": "uint256",
							"name": "",
							"type": "uint256"
						}
					],
					"stateMutability": "view",
					"type": "function"
				},
				{
					"inputs": [],
					"name": "owner",
					"outputs": [
						{
							"internalType": "address",
							"name": "",
							"type": "address"
						}
					],
					"stateMutability": "view",
					"type": "function"
				},
				{
					"inputs": [
						{
							"internalType": "address payable",
							"name": "_to",
							"type": "address"
						},
						{
							"internalType": "uint256",
							"name": "_amt",
							"type": "uint256"
						},
						{
							"internalType": "string",
							"name": "_description",
							"type": "string"
						}
					],
					"name": "withdrawMoney",
					"outputs": [],
					"stateMutability": "nonpayable",
					"type": "function"
				},
				{
					"stateMutability": "payable",
					"type": "receive"
				}
			],
			"devdoc": {
				"kind": "dev",
				"methods": {},
				"version": 1
			},
			"evm": {
				"assembly": "    /* \"Aution.sol\":59:1198  contract allowanceContract {\r... */\n  mstore(0x40, 0x80)\n    /* \"Aution.sol\":277:328  constructor() {\r... */\n  callvalue\n  dup1\n  iszero\n  tag_1\n  jumpi\n  0x00\n  dup1\n  revert\ntag_1:\n  pop\n    /* \"Aution.sol\":310:320  msg.sender */\n  caller\n    /* \"Aution.sol\":302:307  owner */\n  0x00\n  dup1\n    /* \"Aution.sol\":302:320  owner = msg.sender */\n  0x0100\n  exp\n  dup2\n  sload\n  dup2\n  0xffffffffffffffffffffffffffffffffffffffff\n  mul\n  not\n  and\n  swap1\n  dup4\n  0xffffffffffffffffffffffffffffffffffffffff\n  and\n  mul\n  or\n  swap1\n  sstore\n  pop\n    /* \"Aution.sol\":59:1198  contract allowanceContract {\r... */\n  dataSize(sub_0)\n  dup1\n  dataOffset(sub_0)\n  0x00\n  codecopy\n  0x00\n  return\nstop\n\nsub_0: assembly {\n        /* \"Aution.sol\":59:1198  contract allowanceContract {\r... */\n      mstore(0x40, 0x80)\n      jumpi(tag_1, lt(calldatasize, 0x04))\n      shr(0xe0, calldataload(0x00))\n      dup1\n      0x2b603c71\n      eq\n      tag_3\n      jumpi\n      dup1\n      0x3495e901\n      eq\n      tag_4\n      jumpi\n      dup1\n      0x8da5cb5b\n      eq\n      tag_5\n      jumpi\n      dup1\n      0xf3c40c4b\n      eq\n      tag_6\n      jumpi\n      jump(tag_2)\n    tag_1:\n      jumpi(tag_2, calldatasize)\n      stop\n    tag_2:\n      0x00\n      dup1\n      revert\n        /* \"Aution.sol\":122:164  mapping(address => uint) public allowances */\n    tag_3:\n      callvalue\n      dup1\n      iszero\n      tag_9\n      jumpi\n      0x00\n      dup1\n      revert\n    tag_9:\n      pop\n      tag_10\n      0x04\n      dup1\n      calldatasize\n      sub\n      dup2\n      add\n      swap1\n      tag_11\n      swap2\n      swap1\n      tag_12\n      jump\t// in\n    tag_11:\n      tag_13\n      jump\t// in\n    tag_10:\n      mload(0x40)\n      tag_14\n      swap2\n      swap1\n      tag_15\n      jump\t// in\n    tag_14:\n      mload(0x40)\n      dup1\n      swap2\n      sub\n      swap1\n      return\n        /* \"Aution.sol\":843:1193  function withdrawMoney(address payable _to, uint _amt, string memory _description) public ownerOrAllowed(_amt) {\r... */\n    tag_4:\n      callvalue\n      dup1\n      iszero\n      tag_16\n      jumpi\n      0x00\n      dup1\n      revert\n    tag_16:\n      pop\n      tag_17\n      0x04\n      dup1\n      calldatasize\n      sub\n      dup2\n      add\n      swap1\n      tag_18\n      swap2\n      swap1\n      tag_19\n      jump\t// in\n    tag_18:\n      tag_20\n      jump\t// in\n    tag_17:\n      stop\n        /* \"Aution.sol\":95:115  address public owner */\n    tag_5:\n      callvalue\n      dup1\n      iszero\n      tag_21\n      jumpi\n      0x00\n      dup1\n      revert\n    tag_21:\n      pop\n      tag_22\n      tag_23\n      jump\t// in\n    tag_22:\n      mload(0x40)\n      tag_24\n      swap2\n      swap1\n      tag_25\n      jump\t// in\n    tag_24:\n      mload(0x40)\n      dup1\n      swap2\n      sub\n      swap1\n      return\n        /* \"Aution.sol\":730:835  function addAllowance(address _to, uint _amt) public onlyOwner {\r... */\n    tag_6:\n      callvalue\n      dup1\n      iszero\n      tag_26\n      jumpi\n      0x00\n      dup1\n      revert\n    tag_26:\n      pop\n      tag_27\n      0x04\n      dup1\n      calldatasize\n      sub\n      dup2\n      add\n      swap1\n      tag_28\n      swap2\n      swap1\n      tag_29\n      jump\t// in\n    tag_28:\n      tag_30\n      jump\t// in\n    tag_27:\n      stop\n        /* \"Aution.sol\":122:164  mapping(address => uint) public allowances */\n    tag_13:\n      mstore(0x20, 0x01)\n      dup1\n      0x00\n      mstore\n      keccak256(0x00, 0x40)\n      0x00\n      swap2\n      pop\n      swap1\n      pop\n      sload\n      dup2\n      jump\t// out\n        /* \"Aution.sol\":843:1193  function withdrawMoney(address payable _to, uint _amt, string memory _description) public ownerOrAllowed(_amt) {\r... */\n    tag_20:\n        /* \"Aution.sol\":948:952  _amt */\n      dup2\n        /* \"Aution.sol\":507:516  isOwner() */\n      tag_32\n        /* \"Aution.sol\":507:514  isOwner */\n      tag_33\n        /* \"Aution.sol\":507:516  isOwner() */\n      jump\t// in\n    tag_32:\n        /* \"Aution.sol\":507:550  isOwner() || allowances[msg.sender] >= _amt */\n      dup1\n      tag_34\n      jumpi\n      pop\n        /* \"Aution.sol\":546:550  _amt */\n      dup1\n        /* \"Aution.sol\":520:530  allowances */\n      0x01\n        /* \"Aution.sol\":520:542  allowances[msg.sender] */\n      0x00\n        /* \"Aution.sol\":531:541  msg.sender */\n      caller\n        /* \"Aution.sol\":520:542  allowances[msg.sender] */\n      0xffffffffffffffffffffffffffffffffffffffff\n      and\n      0xffffffffffffffffffffffffffffffffffffffff\n      and\n      dup2\n      mstore\n      0x20\n      add\n      swap1\n      dup2\n      mstore\n      0x20\n      add\n      0x00\n      keccak256\n      sload\n        /* \"Aution.sol\":520:550  allowances[msg.sender] >= _amt */\n      lt\n      iszero\n        /* \"Aution.sol\":507:550  isOwner() || allowances[msg.sender] >= _amt */\n    tag_34:\n        /* \"Aution.sol\":499:566  require(isOwner() || allowances[msg.sender] >= _amt, \"Not allowed\") */\n      tag_35\n      jumpi\n      mload(0x40)\n      0x08c379a000000000000000000000000000000000000000000000000000000000\n      dup2\n      mstore\n      0x04\n      add\n      tag_36\n      swap1\n      tag_37\n      jump\t// in\n    tag_36:\n      mload(0x40)\n      dup1\n      swap2\n      sub\n      swap1\n      revert\n    tag_35:\n        /* \"Aution.sol\":998:1002  _amt */\n      dup3\n        /* \"Aution.sol\":973:994  address(this).balance */\n      selfbalance\n        /* \"Aution.sol\":973:1002  address(this).balance >= _amt */\n      lt\n      iszero\n        /* \"Aution.sol\":965:1030  require(address(this).balance >= _amt, \"Don't have enough funds\") */\n      tag_39\n      jumpi\n      mload(0x40)\n      0x08c379a000000000000000000000000000000000000000000000000000000000\n      dup2\n      mstore\n      0x04\n      add\n      tag_40\n      swap1\n      tag_41\n      jump\t// in\n    tag_40:\n      mload(0x40)\n      dup1\n      swap2\n      sub\n      swap1\n      revert\n    tag_39:\n        /* \"Aution.sol\":1046:1074  log(_description, _to, _amt) */\n      0x0d26b92533630e908cb95a1b2ed09291c6aa98f8da7094a2325f8c86cd45e5e4\n        /* \"Aution.sol\":1050:1062  _description */\n      dup3\n        /* \"Aution.sol\":1064:1067  _to */\n      dup6\n        /* \"Aution.sol\":1069:1073  _amt */\n      dup6\n        /* \"Aution.sol\":1046:1074  log(_description, _to, _amt) */\n      mload(0x40)\n      tag_42\n      swap4\n      swap3\n      swap2\n      swap1\n      tag_43\n      jump\t// in\n    tag_42:\n      mload(0x40)\n      dup1\n      swap2\n      sub\n      swap1\n      log1\n        /* \"Aution.sol\":1101:1106  false */\n      0x00\n        /* \"Aution.sol\":1088:1106  isOwner() == false */\n      iszero\n      iszero\n        /* \"Aution.sol\":1088:1097  isOwner() */\n      tag_44\n        /* \"Aution.sol\":1088:1095  isOwner */\n      tag_33\n        /* \"Aution.sol\":1088:1097  isOwner() */\n      jump\t// in\n    tag_44:\n        /* \"Aution.sol\":1088:1106  isOwner() == false */\n      iszero\n      iszero\n      eq\n        /* \"Aution.sol\":1085:1157  if(isOwner() == false){\r... */\n      iszero\n      tag_45\n      jumpi\n        /* \"Aution.sol\":1141:1145  _amt */\n      dup3\n        /* \"Aution.sol\":1122:1132  allowances */\n      0x01\n        /* \"Aution.sol\":1122:1137  allowances[_to] */\n      0x00\n        /* \"Aution.sol\":1133:1136  _to */\n      dup7\n        /* \"Aution.sol\":1122:1137  allowances[_to] */\n      0xffffffffffffffffffffffffffffffffffffffff\n      and\n      0xffffffffffffffffffffffffffffffffffffffff\n      and\n      dup2\n      mstore\n      0x20\n      add\n      swap1\n      dup2\n      mstore\n      0x20\n      add\n      0x00\n      keccak256\n      0x00\n        /* \"Aution.sol\":1122:1145  allowances[_to] -= _amt */\n      dup3\n      dup3\n      sload\n      tag_46\n      swap2\n      swap1\n      tag_47\n      jump\t// in\n    tag_46:\n      swap3\n      pop\n      pop\n      dup2\n      swap1\n      sstore\n      pop\n        /* \"Aution.sol\":1085:1157  if(isOwner() == false){\r... */\n    tag_45:\n        /* \"Aution.sol\":1167:1170  _to */\n      dup4\n        /* \"Aution.sol\":1167:1179  _to.transfer */\n      0xffffffffffffffffffffffffffffffffffffffff\n      and\n        /* \"Aution.sol\":1167:1185  _to.transfer(_amt) */\n      0x08fc\n        /* \"Aution.sol\":1180:1184  _amt */\n      dup5\n        /* \"Aution.sol\":1167:1185  _to.transfer(_amt) */\n      swap1\n      dup2\n      iszero\n      mul\n      swap1\n      mload(0x40)\n      0x00\n      mload(0x40)\n      dup1\n      dup4\n      sub\n      dup2\n      dup6\n      dup9\n      dup9\n      call\n      swap4\n      pop\n      pop\n      pop\n      pop\n      iszero\n      dup1\n      iszero\n      tag_49\n      jumpi\n      returndatasize\n      0x00\n      dup1\n      returndatacopy\n      revert(0x00, returndatasize)\n    tag_49:\n      pop\n        /* \"Aution.sol\":843:1193  function withdrawMoney(address payable _to, uint _amt, string memory _description) public ownerOrAllowed(_amt) {\r... */\n      pop\n      pop\n      pop\n      pop\n      jump\t// out\n        /* \"Aution.sol\":95:115  address public owner */\n    tag_23:\n      0x00\n      dup1\n      sload\n      swap1\n      0x0100\n      exp\n      swap1\n      div\n      0xffffffffffffffffffffffffffffffffffffffff\n      and\n      dup2\n      jump\t// out\n        /* \"Aution.sol\":730:835  function addAllowance(address _to, uint _amt) public onlyOwner {\r... */\n    tag_30:\n        /* \"Aution.sol\":394:399  owner */\n      0x00\n      dup1\n      sload\n      swap1\n      0x0100\n      exp\n      swap1\n      div\n      0xffffffffffffffffffffffffffffffffffffffff\n      and\n        /* \"Aution.sol\":380:399  msg.sender == owner */\n      0xffffffffffffffffffffffffffffffffffffffff\n      and\n        /* \"Aution.sol\":380:390  msg.sender */\n      caller\n        /* \"Aution.sol\":380:399  msg.sender == owner */\n      0xffffffffffffffffffffffffffffffffffffffff\n      and\n      eq\n        /* \"Aution.sol\":372:425  require(msg.sender == owner, \"Only owner can access\") */\n      tag_51\n      jumpi\n      mload(0x40)\n      0x08c379a000000000000000000000000000000000000000000000000000000000\n      dup2\n      mstore\n      0x04\n      add\n      tag_52\n      swap1\n      tag_53\n      jump\t// in\n    tag_52:\n      mload(0x40)\n      dup1\n      swap2\n      sub\n      swap1\n      revert\n    tag_51:\n        /* \"Aution.sol\":823:827  _amt */\n      dup1\n        /* \"Aution.sol\":804:814  allowances */\n      0x01\n        /* \"Aution.sol\":804:819  allowances[_to] */\n      0x00\n        /* \"Aution.sol\":815:818  _to */\n      dup5\n        /* \"Aution.sol\":804:819  allowances[_to] */\n      0xffffffffffffffffffffffffffffffffffffffff\n      and\n      0xffffffffffffffffffffffffffffffffffffffff\n      and\n      dup2\n      mstore\n      0x20\n      add\n      swap1\n      dup2\n      mstore\n      0x20\n      add\n      0x00\n      keccak256\n      0x00\n        /* \"Aution.sol\":804:827  allowances[_to] += _amt */\n      dup3\n      dup3\n      sload\n      tag_55\n      swap2\n      swap1\n      tag_56\n      jump\t// in\n    tag_55:\n      swap3\n      pop\n      pop\n      dup2\n      swap1\n      sstore\n      pop\n        /* \"Aution.sol\":730:835  function addAllowance(address _to, uint _amt) public onlyOwner {\r... */\n      pop\n      pop\n      jump\t// out\n        /* \"Aution.sol\":594:722  function isOwner() private view returns(bool) {\r... */\n    tag_33:\n        /* \"Aution.sol\":634:638  bool */\n      0x00\n        /* \"Aution.sol\":668:673  owner */\n      dup1\n      0x00\n      swap1\n      sload\n      swap1\n      0x0100\n      exp\n      swap1\n      div\n      0xffffffffffffffffffffffffffffffffffffffff\n      and\n        /* \"Aution.sol\":654:673  msg.sender == owner */\n      0xffffffffffffffffffffffffffffffffffffffff\n      and\n        /* \"Aution.sol\":654:664  msg.sender */\n      caller\n        /* \"Aution.sol\":654:673  msg.sender == owner */\n      0xffffffffffffffffffffffffffffffffffffffff\n      and\n      eq\n        /* \"Aution.sol\":651:714  if(msg.sender == owner) return true;\r... */\n      iszero\n      tag_58\n      jumpi\n        /* \"Aution.sol\":682:686  true */\n      0x01\n        /* \"Aution.sol\":675:686  return true */\n      swap1\n      pop\n      jump(tag_57)\n        /* \"Aution.sol\":651:714  if(msg.sender == owner) return true;\r... */\n    tag_58:\n        /* \"Aution.sol\":709:714  false */\n      0x00\n        /* \"Aution.sol\":702:714  return false */\n      swap1\n      pop\n        /* \"Aution.sol\":594:722  function isOwner() private view returns(bool) {\r... */\n    tag_57:\n      swap1\n      jump\t// out\n        /* \"#utility.yul\":7:419   */\n    tag_61:\n        /* \"#utility.yul\":85:90   */\n      0x00\n        /* \"#utility.yul\":110:176   */\n      tag_63\n        /* \"#utility.yul\":126:175   */\n      tag_64\n        /* \"#utility.yul\":168:174   */\n      dup5\n        /* \"#utility.yul\":126:175   */\n      tag_65\n      jump\t// in\n    tag_64:\n        /* \"#utility.yul\":110:176   */\n      tag_66\n      jump\t// in\n    tag_63:\n        /* \"#utility.yul\":101:176   */\n      swap1\n      pop\n        /* \"#utility.yul\":199:205   */\n      dup3\n        /* \"#utility.yul\":192:197   */\n      dup2\n        /* \"#utility.yul\":185:206   */\n      mstore\n        /* \"#utility.yul\":237:241   */\n      0x20\n        /* \"#utility.yul\":230:235   */\n      dup2\n        /* \"#utility.yul\":226:242   */\n      add\n        /* \"#utility.yul\":275:278   */\n      dup5\n        /* \"#utility.yul\":266:272   */\n      dup5\n        /* \"#utility.yul\":261:264   */\n      dup5\n        /* \"#utility.yul\":257:273   */\n      add\n        /* \"#utility.yul\":254:279   */\n      gt\n        /* \"#utility.yul\":251:363   */\n      iszero\n      tag_67\n      jumpi\n        /* \"#utility.yul\":282:361   */\n      tag_68\n      tag_69\n      jump\t// in\n    tag_68:\n        /* \"#utility.yul\":251:363   */\n    tag_67:\n        /* \"#utility.yul\":372:413   */\n      tag_70\n        /* \"#utility.yul\":406:412   */\n      dup5\n        /* \"#utility.yul\":401:404   */\n      dup3\n        /* \"#utility.yul\":396:399   */\n      dup6\n        /* \"#utility.yul\":372:413   */\n      tag_71\n      jump\t// in\n    tag_70:\n        /* \"#utility.yul\":91:419   */\n      pop\n        /* \"#utility.yul\":7:419   */\n      swap4\n      swap3\n      pop\n      pop\n      pop\n      jump\t// out\n        /* \"#utility.yul\":425:564   */\n    tag_72:\n        /* \"#utility.yul\":471:476   */\n      0x00\n        /* \"#utility.yul\":509:515   */\n      dup2\n        /* \"#utility.yul\":496:516   */\n      calldataload\n        /* \"#utility.yul\":487:516   */\n      swap1\n      pop\n        /* \"#utility.yul\":525:558   */\n      tag_74\n        /* \"#utility.yul\":552:557   */\n      dup2\n        /* \"#utility.yul\":525:558   */\n      tag_75\n      jump\t// in\n    tag_74:\n        /* \"#utility.yul\":425:564   */\n      swap3\n      swap2\n      pop\n      pop\n      jump\t// out\n        /* \"#utility.yul\":570:725   */\n    tag_76:\n        /* \"#utility.yul\":624:629   */\n      0x00\n        /* \"#utility.yul\":662:668   */\n      dup2\n        /* \"#utility.yul\":649:669   */\n      calldataload\n        /* \"#utility.yul\":640:669   */\n      swap1\n      pop\n        /* \"#utility.yul\":678:719   */\n      tag_78\n        /* \"#utility.yul\":713:718   */\n      dup2\n        /* \"#utility.yul\":678:719   */\n      tag_79\n      jump\t// in\n    tag_78:\n        /* \"#utility.yul\":570:725   */\n      swap3\n      swap2\n      pop\n      pop\n      jump\t// out\n        /* \"#utility.yul\":745:1085   */\n    tag_80:\n        /* \"#utility.yul\":801:806   */\n      0x00\n        /* \"#utility.yul\":850:853   */\n      dup3\n        /* \"#utility.yul\":843:847   */\n      0x1f\n        /* \"#utility.yul\":835:841   */\n      dup4\n        /* \"#utility.yul\":831:848   */\n      add\n        /* \"#utility.yul\":827:854   */\n      slt\n        /* \"#utility.yul\":817:939   */\n      tag_82\n      jumpi\n        /* \"#utility.yul\":858:937   */\n      tag_83\n      tag_84\n      jump\t// in\n    tag_83:\n        /* \"#utility.yul\":817:939   */\n    tag_82:\n        /* \"#utility.yul\":975:981   */\n      dup2\n        /* \"#utility.yul\":962:982   */\n      calldataload\n        /* \"#utility.yul\":1000:1079   */\n      tag_85\n        /* \"#utility.yul\":1075:1078   */\n      dup5\n        /* \"#utility.yul\":1067:1073   */\n      dup3\n        /* \"#utility.yul\":1060:1064   */\n      0x20\n        /* \"#utility.yul\":1052:1058   */\n      dup7\n        /* \"#utility.yul\":1048:1065   */\n      add\n        /* \"#utility.yul\":1000:1079   */\n      tag_61\n      jump\t// in\n    tag_85:\n        /* \"#utility.yul\":991:1079   */\n      swap2\n      pop\n        /* \"#utility.yul\":807:1085   */\n      pop\n        /* \"#utility.yul\":745:1085   */\n      swap3\n      swap2\n      pop\n      pop\n      jump\t// out\n        /* \"#utility.yul\":1091:1230   */\n    tag_86:\n        /* \"#utility.yul\":1137:1142   */\n      0x00\n        /* \"#utility.yul\":1175:1181   */\n      dup2\n        /* \"#utility.yul\":1162:1182   */\n      calldataload\n        /* \"#utility.yul\":1153:1182   */\n      swap1\n      pop\n        /* \"#utility.yul\":1191:1224   */\n      tag_88\n        /* \"#utility.yul\":1218:1223   */\n      dup2\n        /* \"#utility.yul\":1191:1224   */\n      tag_89\n      jump\t// in\n    tag_88:\n        /* \"#utility.yul\":1091:1230   */\n      swap3\n      swap2\n      pop\n      pop\n      jump\t// out\n        /* \"#utility.yul\":1236:1565   */\n    tag_12:\n        /* \"#utility.yul\":1295:1301   */\n      0x00\n        /* \"#utility.yul\":1344:1346   */\n      0x20\n        /* \"#utility.yul\":1332:1341   */\n      dup3\n        /* \"#utility.yul\":1323:1330   */\n      dup5\n        /* \"#utility.yul\":1319:1342   */\n      sub\n        /* \"#utility.yul\":1315:1347   */\n      slt\n        /* \"#utility.yul\":1312:1431   */\n      iszero\n      tag_91\n      jumpi\n        /* \"#utility.yul\":1350:1429   */\n      tag_92\n      tag_93\n      jump\t// in\n    tag_92:\n        /* \"#utility.yul\":1312:1431   */\n    tag_91:\n        /* \"#utility.yul\":1470:1471   */\n      0x00\n        /* \"#utility.yul\":1495:1548   */\n      tag_94\n        /* \"#utility.yul\":1540:1547   */\n      dup5\n        /* \"#utility.yul\":1531:1537   */\n      dup3\n        /* \"#utility.yul\":1520:1529   */\n      dup6\n        /* \"#utility.yul\":1516:1538   */\n      add\n        /* \"#utility.yul\":1495:1548   */\n      tag_72\n      jump\t// in\n    tag_94:\n        /* \"#utility.yul\":1485:1548   */\n      swap2\n      pop\n        /* \"#utility.yul\":1441:1558   */\n      pop\n        /* \"#utility.yul\":1236:1565   */\n      swap3\n      swap2\n      pop\n      pop\n      jump\t// out\n        /* \"#utility.yul\":1571:2386   */\n    tag_19:\n        /* \"#utility.yul\":1666:1672   */\n      0x00\n        /* \"#utility.yul\":1674:1680   */\n      dup1\n        /* \"#utility.yul\":1682:1688   */\n      0x00\n        /* \"#utility.yul\":1731:1733   */\n      0x60\n        /* \"#utility.yul\":1719:1728   */\n      dup5\n        /* \"#utility.yul\":1710:1717   */\n      dup7\n        /* \"#utility.yul\":1706:1729   */\n      sub\n        /* \"#utility.yul\":1702:1734   */\n      slt\n        /* \"#utility.yul\":1699:1818   */\n      iszero\n      tag_96\n      jumpi\n        /* \"#utility.yul\":1737:1816   */\n      tag_97\n      tag_93\n      jump\t// in\n    tag_97:\n        /* \"#utility.yul\":1699:1818   */\n    tag_96:\n        /* \"#utility.yul\":1857:1858   */\n      0x00\n        /* \"#utility.yul\":1882:1943   */\n      tag_98\n        /* \"#utility.yul\":1935:1942   */\n      dup7\n        /* \"#utility.yul\":1926:1932   */\n      dup3\n        /* \"#utility.yul\":1915:1924   */\n      dup8\n        /* \"#utility.yul\":1911:1933   */\n      add\n        /* \"#utility.yul\":1882:1943   */\n      tag_76\n      jump\t// in\n    tag_98:\n        /* \"#utility.yul\":1872:1943   */\n      swap4\n      pop\n        /* \"#utility.yul\":1828:1953   */\n      pop\n        /* \"#utility.yul\":1992:1994   */\n      0x20\n        /* \"#utility.yul\":2018:2071   */\n      tag_99\n        /* \"#utility.yul\":2063:2070   */\n      dup7\n        /* \"#utility.yul\":2054:2060   */\n      dup3\n        /* \"#utility.yul\":2043:2052   */\n      dup8\n        /* \"#utility.yul\":2039:2061   */\n      add\n        /* \"#utility.yul\":2018:2071   */\n      tag_86\n      jump\t// in\n    tag_99:\n        /* \"#utility.yul\":2008:2071   */\n      swap3\n      pop\n        /* \"#utility.yul\":1963:2081   */\n      pop\n        /* \"#utility.yul\":2148:2150   */\n      0x40\n        /* \"#utility.yul\":2137:2146   */\n      dup5\n        /* \"#utility.yul\":2133:2151   */\n      add\n        /* \"#utility.yul\":2120:2152   */\n      calldataload\n        /* \"#utility.yul\":2179:2197   */\n      0xffffffffffffffff\n        /* \"#utility.yul\":2171:2177   */\n      dup2\n        /* \"#utility.yul\":2168:2198   */\n      gt\n        /* \"#utility.yul\":2165:2282   */\n      iszero\n      tag_100\n      jumpi\n        /* \"#utility.yul\":2201:2280   */\n      tag_101\n      tag_102\n      jump\t// in\n    tag_101:\n        /* \"#utility.yul\":2165:2282   */\n    tag_100:\n        /* \"#utility.yul\":2306:2369   */\n      tag_103\n        /* \"#utility.yul\":2361:2368   */\n      dup7\n        /* \"#utility.yul\":2352:2358   */\n      dup3\n        /* \"#utility.yul\":2341:2350   */\n      dup8\n        /* \"#utility.yul\":2337:2359   */\n      add\n        /* \"#utility.yul\":2306:2369   */\n      tag_80\n      jump\t// in\n    tag_103:\n        /* \"#utility.yul\":2296:2369   */\n      swap2\n      pop\n        /* \"#utility.yul\":2091:2379   */\n      pop\n        /* \"#utility.yul\":1571:2386   */\n      swap3\n      pop\n      swap3\n      pop\n      swap3\n      jump\t// out\n        /* \"#utility.yul\":2392:2866   */\n    tag_29:\n        /* \"#utility.yul\":2460:2466   */\n      0x00\n        /* \"#utility.yul\":2468:2474   */\n      dup1\n        /* \"#utility.yul\":2517:2519   */\n      0x40\n        /* \"#utility.yul\":2505:2514   */\n      dup4\n        /* \"#utility.yul\":2496:2503   */\n      dup6\n        /* \"#utility.yul\":2492:2515   */\n      sub\n        /* \"#utility.yul\":2488:2520   */\n      slt\n        /* \"#utility.yul\":2485:2604   */\n      iszero\n      tag_105\n      jumpi\n        /* \"#utility.yul\":2523:2602   */\n      tag_106\n      tag_93\n      jump\t// in\n    tag_106:\n        /* \"#utility.yul\":2485:2604   */\n    tag_105:\n        /* \"#utility.yul\":2643:2644   */\n      0x00\n        /* \"#utility.yul\":2668:2721   */\n      tag_107\n        /* \"#utility.yul\":2713:2720   */\n      dup6\n        /* \"#utility.yul\":2704:2710   */\n      dup3\n        /* \"#utility.yul\":2693:2702   */\n      dup7\n        /* \"#utility.yul\":2689:2711   */\n      add\n        /* \"#utility.yul\":2668:2721   */\n      tag_72\n      jump\t// in\n    tag_107:\n        /* \"#utility.yul\":2658:2721   */\n      swap3\n      pop\n        /* \"#utility.yul\":2614:2731   */\n      pop\n        /* \"#utility.yul\":2770:2772   */\n      0x20\n        /* \"#utility.yul\":2796:2849   */\n      tag_108\n        /* \"#utility.yul\":2841:2848   */\n      dup6\n        /* \"#utility.yul\":2832:2838   */\n      dup3\n        /* \"#utility.yul\":2821:2830   */\n      dup7\n        /* \"#utility.yul\":2817:2839   */\n      add\n        /* \"#utility.yul\":2796:2849   */\n      tag_86\n      jump\t// in\n    tag_108:\n        /* \"#utility.yul\":2786:2849   */\n      swap2\n      pop\n        /* \"#utility.yul\":2741:2859   */\n      pop\n        /* \"#utility.yul\":2392:2866   */\n      swap3\n      pop\n      swap3\n      swap1\n      pop\n      jump\t// out\n        /* \"#utility.yul\":2872:3019   */\n    tag_109:\n        /* \"#utility.yul\":2967:3012   */\n      tag_111\n        /* \"#utility.yul\":3006:3011   */\n      dup2\n        /* \"#utility.yul\":2967:3012   */\n      tag_112\n      jump\t// in\n    tag_111:\n        /* \"#utility.yul\":2962:2965   */\n      dup3\n        /* \"#utility.yul\":2955:3013   */\n      mstore\n        /* \"#utility.yul\":2872:3019   */\n      pop\n      pop\n      jump\t// out\n        /* \"#utility.yul\":3025:3143   */\n    tag_113:\n        /* \"#utility.yul\":3112:3136   */\n      tag_115\n        /* \"#utility.yul\":3130:3135   */\n      dup2\n        /* \"#utility.yul\":3112:3136   */\n      tag_116\n      jump\t// in\n    tag_115:\n        /* \"#utility.yul\":3107:3110   */\n      dup3\n        /* \"#utility.yul\":3100:3137   */\n      mstore\n        /* \"#utility.yul\":3025:3143   */\n      pop\n      pop\n      jump\t// out\n        /* \"#utility.yul\":3149:3513   */\n    tag_117:\n        /* \"#utility.yul\":3237:3240   */\n      0x00\n        /* \"#utility.yul\":3265:3304   */\n      tag_119\n        /* \"#utility.yul\":3298:3303   */\n      dup3\n        /* \"#utility.yul\":3265:3304   */\n      tag_120\n      jump\t// in\n    tag_119:\n        /* \"#utility.yul\":3320:3391   */\n      tag_121\n        /* \"#utility.yul\":3384:3390   */\n      dup2\n        /* \"#utility.yul\":3379:3382   */\n      dup6\n        /* \"#utility.yul\":3320:3391   */\n      tag_122\n      jump\t// in\n    tag_121:\n        /* \"#utility.yul\":3313:3391   */\n      swap4\n      pop\n        /* \"#utility.yul\":3400:3452   */\n      tag_123\n        /* \"#utility.yul\":3445:3451   */\n      dup2\n        /* \"#utility.yul\":3440:3443   */\n      dup6\n        /* \"#utility.yul\":3433:3437   */\n      0x20\n        /* \"#utility.yul\":3426:3431   */\n      dup7\n        /* \"#utility.yul\":3422:3438   */\n      add\n        /* \"#utility.yul\":3400:3452   */\n      tag_124\n      jump\t// in\n    tag_123:\n        /* \"#utility.yul\":3477:3506   */\n      tag_125\n        /* \"#utility.yul\":3499:3505   */\n      dup2\n        /* \"#utility.yul\":3477:3506   */\n      tag_126\n      jump\t// in\n    tag_125:\n        /* \"#utility.yul\":3472:3475   */\n      dup5\n        /* \"#utility.yul\":3468:3507   */\n      add\n        /* \"#utility.yul\":3461:3507   */\n      swap2\n      pop\n        /* \"#utility.yul\":3241:3513   */\n      pop\n        /* \"#utility.yul\":3149:3513   */\n      swap3\n      swap2\n      pop\n      pop\n      jump\t// out\n        /* \"#utility.yul\":3519:3885   */\n    tag_127:\n        /* \"#utility.yul\":3661:3664   */\n      0x00\n        /* \"#utility.yul\":3682:3749   */\n      tag_129\n        /* \"#utility.yul\":3746:3748   */\n      0x0b\n        /* \"#utility.yul\":3741:3744   */\n      dup4\n        /* \"#utility.yul\":3682:3749   */\n      tag_122\n      jump\t// in\n    tag_129:\n        /* \"#utility.yul\":3675:3749   */\n      swap2\n      pop\n        /* \"#utility.yul\":3758:3851   */\n      tag_130\n        /* \"#utility.yul\":3847:3850   */\n      dup3\n        /* \"#utility.yul\":3758:3851   */\n      tag_131\n      jump\t// in\n    tag_130:\n        /* \"#utility.yul\":3876:3878   */\n      0x20\n        /* \"#utility.yul\":3871:3874   */\n      dup3\n        /* \"#utility.yul\":3867:3879   */\n      add\n        /* \"#utility.yul\":3860:3879   */\n      swap1\n      pop\n        /* \"#utility.yul\":3519:3885   */\n      swap2\n      swap1\n      pop\n      jump\t// out\n        /* \"#utility.yul\":3891:4257   */\n    tag_132:\n        /* \"#utility.yul\":4033:4036   */\n      0x00\n        /* \"#utility.yul\":4054:4121   */\n      tag_134\n        /* \"#utility.yul\":4118:4120   */\n      0x15\n        /* \"#utility.yul\":4113:4116   */\n      dup4\n        /* \"#utility.yul\":4054:4121   */\n      tag_122\n      jump\t// in\n    tag_134:\n        /* \"#utility.yul\":4047:4121   */\n      swap2\n      pop\n        /* \"#utility.yul\":4130:4223   */\n      tag_135\n        /* \"#utility.yul\":4219:4222   */\n      dup3\n        /* \"#utility.yul\":4130:4223   */\n      tag_136\n      jump\t// in\n    tag_135:\n        /* \"#utility.yul\":4248:4250   */\n      0x20\n        /* \"#utility.yul\":4243:4246   */\n      dup3\n        /* \"#utility.yul\":4239:4251   */\n      add\n        /* \"#utility.yul\":4232:4251   */\n      swap1\n      pop\n        /* \"#utility.yul\":3891:4257   */\n      swap2\n      swap1\n      pop\n      jump\t// out\n        /* \"#utility.yul\":4263:4629   */\n    tag_137:\n        /* \"#utility.yul\":4405:4408   */\n      0x00\n        /* \"#utility.yul\":4426:4493   */\n      tag_139\n        /* \"#utility.yul\":4490:4492   */\n      0x17\n        /* \"#utility.yul\":4485:4488   */\n      dup4\n        /* \"#utility.yul\":4426:4493   */\n      tag_122\n      jump\t// in\n    tag_139:\n        /* \"#utility.yul\":4419:4493   */\n      swap2\n      pop\n        /* \"#utility.yul\":4502:4595   */\n      tag_140\n        /* \"#utility.yul\":4591:4594   */\n      dup3\n        /* \"#utility.yul\":4502:4595   */\n      tag_141\n      jump\t// in\n    tag_140:\n        /* \"#utility.yul\":4620:4622   */\n      0x20\n        /* \"#utility.yul\":4615:4618   */\n      dup3\n        /* \"#utility.yul\":4611:4623   */\n      add\n        /* \"#utility.yul\":4604:4623   */\n      swap1\n      pop\n        /* \"#utility.yul\":4263:4629   */\n      swap2\n      swap1\n      pop\n      jump\t// out\n        /* \"#utility.yul\":4635:4753   */\n    tag_142:\n        /* \"#utility.yul\":4722:4746   */\n      tag_144\n        /* \"#utility.yul\":4740:4745   */\n      dup2\n        /* \"#utility.yul\":4722:4746   */\n      tag_145\n      jump\t// in\n    tag_144:\n        /* \"#utility.yul\":4717:4720   */\n      dup3\n        /* \"#utility.yul\":4710:4747   */\n      mstore\n        /* \"#utility.yul\":4635:4753   */\n      pop\n      pop\n      jump\t// out\n        /* \"#utility.yul\":4759:4981   */\n    tag_25:\n        /* \"#utility.yul\":4852:4856   */\n      0x00\n        /* \"#utility.yul\":4890:4892   */\n      0x20\n        /* \"#utility.yul\":4879:4888   */\n      dup3\n        /* \"#utility.yul\":4875:4893   */\n      add\n        /* \"#utility.yul\":4867:4893   */\n      swap1\n      pop\n        /* \"#utility.yul\":4903:4974   */\n      tag_147\n        /* \"#utility.yul\":4971:4972   */\n      0x00\n        /* \"#utility.yul\":4960:4969   */\n      dup4\n        /* \"#utility.yul\":4956:4973   */\n      add\n        /* \"#utility.yul\":4947:4953   */\n      dup5\n        /* \"#utility.yul\":4903:4974   */\n      tag_113\n      jump\t// in\n    tag_147:\n        /* \"#utility.yul\":4759:4981   */\n      swap3\n      swap2\n      pop\n      pop\n      jump\t// out\n        /* \"#utility.yul\":4987:5536   */\n    tag_43:\n        /* \"#utility.yul\":5164:5168   */\n      0x00\n        /* \"#utility.yul\":5202:5204   */\n      0x60\n        /* \"#utility.yul\":5191:5200   */\n      dup3\n        /* \"#utility.yul\":5187:5205   */\n      add\n        /* \"#utility.yul\":5179:5205   */\n      swap1\n      pop\n        /* \"#utility.yul\":5251:5260   */\n      dup2\n        /* \"#utility.yul\":5245:5249   */\n      dup2\n        /* \"#utility.yul\":5241:5261   */\n      sub\n        /* \"#utility.yul\":5237:5238   */\n      0x00\n        /* \"#utility.yul\":5226:5235   */\n      dup4\n        /* \"#utility.yul\":5222:5239   */\n      add\n        /* \"#utility.yul\":5215:5262   */\n      mstore\n        /* \"#utility.yul\":5279:5357   */\n      tag_149\n        /* \"#utility.yul\":5352:5356   */\n      dup2\n        /* \"#utility.yul\":5343:5349   */\n      dup7\n        /* \"#utility.yul\":5279:5357   */\n      tag_117\n      jump\t// in\n    tag_149:\n        /* \"#utility.yul\":5271:5357   */\n      swap1\n      pop\n        /* \"#utility.yul\":5367:5447   */\n      tag_150\n        /* \"#utility.yul\":5443:5445   */\n      0x20\n        /* \"#utility.yul\":5432:5441   */\n      dup4\n        /* \"#utility.yul\":5428:5446   */\n      add\n        /* \"#utility.yul\":5419:5425   */\n      dup6\n        /* \"#utility.yul\":5367:5447   */\n      tag_109\n      jump\t// in\n    tag_150:\n        /* \"#utility.yul\":5457:5529   */\n      tag_151\n        /* \"#utility.yul\":5525:5527   */\n      0x40\n        /* \"#utility.yul\":5514:5523   */\n      dup4\n        /* \"#utility.yul\":5510:5528   */\n      add\n        /* \"#utility.yul\":5501:5507   */\n      dup5\n        /* \"#utility.yul\":5457:5529   */\n      tag_142\n      jump\t// in\n    tag_151:\n        /* \"#utility.yul\":4987:5536   */\n      swap5\n      swap4\n      pop\n      pop\n      pop\n      pop\n      jump\t// out\n        /* \"#utility.yul\":5542:5961   */\n    tag_37:\n        /* \"#utility.yul\":5708:5712   */\n      0x00\n        /* \"#utility.yul\":5746:5748   */\n      0x20\n        /* \"#utility.yul\":5735:5744   */\n      dup3\n        /* \"#utility.yul\":5731:5749   */\n      add\n        /* \"#utility.yul\":5723:5749   */\n      swap1\n      pop\n        /* \"#utility.yul\":5795:5804   */\n      dup2\n        /* \"#utility.yul\":5789:5793   */\n      dup2\n        /* \"#utility.yul\":5785:5805   */\n      sub\n        /* \"#utility.yul\":5781:5782   */\n      0x00\n        /* \"#utility.yul\":5770:5779   */\n      dup4\n        /* \"#utility.yul\":5766:5783   */\n      add\n        /* \"#utility.yul\":5759:5806   */\n      mstore\n        /* \"#utility.yul\":5823:5954   */\n      tag_153\n        /* \"#utility.yul\":5949:5953   */\n      dup2\n        /* \"#utility.yul\":5823:5954   */\n      tag_127\n      jump\t// in\n    tag_153:\n        /* \"#utility.yul\":5815:5954   */\n      swap1\n      pop\n        /* \"#utility.yul\":5542:5961   */\n      swap2\n      swap1\n      pop\n      jump\t// out\n        /* \"#utility.yul\":5967:6386   */\n    tag_53:\n        /* \"#utility.yul\":6133:6137   */\n      0x00\n        /* \"#utility.yul\":6171:6173   */\n      0x20\n        /* \"#utility.yul\":6160:6169   */\n      dup3\n        /* \"#utility.yul\":6156:6174   */\n      add\n        /* \"#utility.yul\":6148:6174   */\n      swap1\n      pop\n        /* \"#utility.yul\":6220:6229   */\n      dup2\n        /* \"#utility.yul\":6214:6218   */\n      dup2\n        /* \"#utility.yul\":6210:6230   */\n      sub\n        /* \"#utility.yul\":6206:6207   */\n      0x00\n        /* \"#utility.yul\":6195:6204   */\n      dup4\n        /* \"#utility.yul\":6191:6208   */\n      add\n        /* \"#utility.yul\":6184:6231   */\n      mstore\n        /* \"#utility.yul\":6248:6379   */\n      tag_155\n        /* \"#utility.yul\":6374:6378   */\n      dup2\n        /* \"#utility.yul\":6248:6379   */\n      tag_132\n      jump\t// in\n    tag_155:\n        /* \"#utility.yul\":6240:6379   */\n      swap1\n      pop\n        /* \"#utility.yul\":5967:6386   */\n      swap2\n      swap1\n      pop\n      jump\t// out\n        /* \"#utility.yul\":6392:6811   */\n    tag_41:\n        /* \"#utility.yul\":6558:6562   */\n      0x00\n        /* \"#utility.yul\":6596:6598   */\n      0x20\n        /* \"#utility.yul\":6585:6594   */\n      dup3\n        /* \"#utility.yul\":6581:6599   */\n      add\n        /* \"#utility.yul\":6573:6599   */\n      swap1\n      pop\n        /* \"#utility.yul\":6645:6654   */\n      dup2\n        /* \"#utility.yul\":6639:6643   */\n      dup2\n        /* \"#utility.yul\":6635:6655   */\n      sub\n        /* \"#utility.yul\":6631:6632   */\n      0x00\n        /* \"#utility.yul\":6620:6629   */\n      dup4\n        /* \"#utility.yul\":6616:6633   */\n      add\n        /* \"#utility.yul\":6609:6656   */\n      mstore\n        /* \"#utility.yul\":6673:6804   */\n      tag_157\n        /* \"#utility.yul\":6799:6803   */\n      dup2\n        /* \"#utility.yul\":6673:6804   */\n      tag_137\n      jump\t// in\n    tag_157:\n        /* \"#utility.yul\":6665:6804   */\n      swap1\n      pop\n        /* \"#utility.yul\":6392:6811   */\n      swap2\n      swap1\n      pop\n      jump\t// out\n        /* \"#utility.yul\":6817:7039   */\n    tag_15:\n        /* \"#utility.yul\":6910:6914   */\n      0x00\n        /* \"#utility.yul\":6948:6950   */\n      0x20\n        /* \"#utility.yul\":6937:6946   */\n      dup3\n        /* \"#utility.yul\":6933:6951   */\n      add\n        /* \"#utility.yul\":6925:6951   */\n      swap1\n      pop\n        /* \"#utility.yul\":6961:7032   */\n      tag_159\n        /* \"#utility.yul\":7029:7030   */\n      0x00\n        /* \"#utility.yul\":7018:7027   */\n      dup4\n        /* \"#utility.yul\":7014:7031   */\n      add\n        /* \"#utility.yul\":7005:7011   */\n      dup5\n        /* \"#utility.yul\":6961:7032   */\n      tag_142\n      jump\t// in\n    tag_159:\n        /* \"#utility.yul\":6817:7039   */\n      swap3\n      swap2\n      pop\n      pop\n      jump\t// out\n        /* \"#utility.yul\":7045:7174   */\n    tag_66:\n        /* \"#utility.yul\":7079:7085   */\n      0x00\n        /* \"#utility.yul\":7106:7126   */\n      tag_161\n      tag_162\n      jump\t// in\n    tag_161:\n        /* \"#utility.yul\":7096:7126   */\n      swap1\n      pop\n        /* \"#utility.yul\":7135:7168   */\n      tag_163\n        /* \"#utility.yul\":7163:7167   */\n      dup3\n        /* \"#utility.yul\":7155:7161   */\n      dup3\n        /* \"#utility.yul\":7135:7168   */\n      tag_164\n      jump\t// in\n    tag_163:\n        /* \"#utility.yul\":7045:7174   */\n      swap2\n      swap1\n      pop\n      jump\t// out\n        /* \"#utility.yul\":7180:7255   */\n    tag_162:\n        /* \"#utility.yul\":7213:7219   */\n      0x00\n        /* \"#utility.yul\":7246:7248   */\n      0x40\n        /* \"#utility.yul\":7240:7249   */\n      mload\n        /* \"#utility.yul\":7230:7249   */\n      swap1\n      pop\n        /* \"#utility.yul\":7180:7255   */\n      swap1\n      jump\t// out\n        /* \"#utility.yul\":7261:7569   */\n    tag_65:\n        /* \"#utility.yul\":7323:7327   */\n      0x00\n        /* \"#utility.yul\":7413:7431   */\n      0xffffffffffffffff\n        /* \"#utility.yul\":7405:7411   */\n      dup3\n        /* \"#utility.yul\":7402:7432   */\n      gt\n        /* \"#utility.yul\":7399:7455   */\n      iszero\n      tag_167\n      jumpi\n        /* \"#utility.yul\":7435:7453   */\n      tag_168\n      tag_169\n      jump\t// in\n    tag_168:\n        /* \"#utility.yul\":7399:7455   */\n    tag_167:\n        /* \"#utility.yul\":7473:7502   */\n      tag_170\n        /* \"#utility.yul\":7495:7501   */\n      dup3\n        /* \"#utility.yul\":7473:7502   */\n      tag_126\n      jump\t// in\n    tag_170:\n        /* \"#utility.yul\":7465:7502   */\n      swap1\n      pop\n        /* \"#utility.yul\":7557:7561   */\n      0x20\n        /* \"#utility.yul\":7551:7555   */\n      dup2\n        /* \"#utility.yul\":7547:7562   */\n      add\n        /* \"#utility.yul\":7539:7562   */\n      swap1\n      pop\n        /* \"#utility.yul\":7261:7569   */\n      swap2\n      swap1\n      pop\n      jump\t// out\n        /* \"#utility.yul\":7575:7674   */\n    tag_120:\n        /* \"#utility.yul\":7627:7633   */\n      0x00\n        /* \"#utility.yul\":7661:7666   */\n      dup2\n        /* \"#utility.yul\":7655:7667   */\n      mload\n        /* \"#utility.yul\":7645:7667   */\n      swap1\n      pop\n        /* \"#utility.yul\":7575:7674   */\n      swap2\n      swap1\n      pop\n      jump\t// out\n        /* \"#utility.yul\":7680:7849   */\n    tag_122:\n        /* \"#utility.yul\":7764:7775   */\n      0x00\n        /* \"#utility.yul\":7798:7804   */\n      dup3\n        /* \"#utility.yul\":7793:7796   */\n      dup3\n        /* \"#utility.yul\":7786:7805   */\n      mstore\n        /* \"#utility.yul\":7838:7842   */\n      0x20\n        /* \"#utility.yul\":7833:7836   */\n      dup3\n        /* \"#utility.yul\":7829:7843   */\n      add\n        /* \"#utility.yul\":7814:7843   */\n      swap1\n      pop\n        /* \"#utility.yul\":7680:7849   */\n      swap3\n      swap2\n      pop\n      pop\n      jump\t// out\n        /* \"#utility.yul\":7855:8160   */\n    tag_56:\n        /* \"#utility.yul\":7895:7898   */\n      0x00\n        /* \"#utility.yul\":7914:7934   */\n      tag_174\n        /* \"#utility.yul\":7932:7933   */\n      dup3\n        /* \"#utility.yul\":7914:7934   */\n      tag_145\n      jump\t// in\n    tag_174:\n        /* \"#utility.yul\":7909:7934   */\n      swap2\n      pop\n        /* \"#utility.yul\":7948:7968   */\n      tag_175\n        /* \"#utility.yul\":7966:7967   */\n      dup4\n        /* \"#utility.yul\":7948:7968   */\n      tag_145\n      jump\t// in\n    tag_175:\n        /* \"#utility.yul\":7943:7968   */\n      swap3\n      pop\n        /* \"#utility.yul\":8102:8103   */\n      dup3\n        /* \"#utility.yul\":8034:8100   */\n      0xffffffffffffffffffffffffffffffffffffffffffffffffffffffffffffffff\n        /* \"#utility.yul\":8030:8104   */\n      sub\n        /* \"#utility.yul\":8027:8028   */\n      dup3\n        /* \"#utility.yul\":8024:8105   */\n      gt\n        /* \"#utility.yul\":8021:8128   */\n      iszero\n      tag_176\n      jumpi\n        /* \"#utility.yul\":8108:8126   */\n      tag_177\n      tag_178\n      jump\t// in\n    tag_177:\n        /* \"#utility.yul\":8021:8128   */\n    tag_176:\n        /* \"#utility.yul\":8152:8153   */\n      dup3\n        /* \"#utility.yul\":8149:8150   */\n      dup3\n        /* \"#utility.yul\":8145:8154   */\n      add\n        /* \"#utility.yul\":8138:8154   */\n      swap1\n      pop\n        /* \"#utility.yul\":7855:8160   */\n      swap3\n      swap2\n      pop\n      pop\n      jump\t// out\n        /* \"#utility.yul\":8166:8357   */\n    tag_47:\n        /* \"#utility.yul\":8206:8210   */\n      0x00\n        /* \"#utility.yul\":8226:8246   */\n      tag_180\n        /* \"#utility.yul\":8244:8245   */\n      dup3\n        /* \"#utility.yul\":8226:8246   */\n      tag_145\n      jump\t// in\n    tag_180:\n        /* \"#utility.yul\":8221:8246   */\n      swap2\n      pop\n        /* \"#utility.yul\":8260:8280   */\n      tag_181\n        /* \"#utility.yul\":8278:8279   */\n      dup4\n        /* \"#utility.yul\":8260:8280   */\n      tag_145\n      jump\t// in\n    tag_181:\n        /* \"#utility.yul\":8255:8280   */\n      swap3\n      pop\n        /* \"#utility.yul\":8299:8300   */\n      dup3\n        /* \"#utility.yul\":8296:8297   */\n      dup3\n        /* \"#utility.yul\":8293:8301   */\n      lt\n        /* \"#utility.yul\":8290:8324   */\n      iszero\n      tag_182\n      jumpi\n        /* \"#utility.yul\":8304:8322   */\n      tag_183\n      tag_178\n      jump\t// in\n    tag_183:\n        /* \"#utility.yul\":8290:8324   */\n    tag_182:\n        /* \"#utility.yul\":8349:8350   */\n      dup3\n        /* \"#utility.yul\":8346:8347   */\n      dup3\n        /* \"#utility.yul\":8342:8351   */\n      sub\n        /* \"#utility.yul\":8334:8351   */\n      swap1\n      pop\n        /* \"#utility.yul\":8166:8357   */\n      swap3\n      swap2\n      pop\n      pop\n      jump\t// out\n        /* \"#utility.yul\":8363:8459   */\n    tag_116:\n        /* \"#utility.yul\":8400:8407   */\n      0x00\n        /* \"#utility.yul\":8429:8453   */\n      tag_185\n        /* \"#utility.yul\":8447:8452   */\n      dup3\n        /* \"#utility.yul\":8429:8453   */\n      tag_186\n      jump\t// in\n    tag_185:\n        /* \"#utility.yul\":8418:8453   */\n      swap1\n      pop\n        /* \"#utility.yul\":8363:8459   */\n      swap2\n      swap1\n      pop\n      jump\t// out\n        /* \"#utility.yul\":8465:8569   */\n    tag_187:\n        /* \"#utility.yul\":8510:8517   */\n      0x00\n        /* \"#utility.yul\":8539:8563   */\n      tag_189\n        /* \"#utility.yul\":8557:8562   */\n      dup3\n        /* \"#utility.yul\":8539:8563   */\n      tag_186\n      jump\t// in\n    tag_189:\n        /* \"#utility.yul\":8528:8563   */\n      swap1\n      pop\n        /* \"#utility.yul\":8465:8569   */\n      swap2\n      swap1\n      pop\n      jump\t// out\n        /* \"#utility.yul\":8575:8701   */\n    tag_186:\n        /* \"#utility.yul\":8612:8619   */\n      0x00\n        /* \"#utility.yul\":8652:8694   */\n      0xffffffffffffffffffffffffffffffffffffffff\n        /* \"#utility.yul\":8645:8650   */\n      dup3\n        /* \"#utility.yul\":8641:8695   */\n      and\n        /* \"#utility.yul\":8630:8695   */\n      swap1\n      pop\n        /* \"#utility.yul\":8575:8701   */\n      swap2\n      swap1\n      pop\n      jump\t// out\n        /* \"#utility.yul\":8707:8784   */\n    tag_145:\n        /* \"#utility.yul\":8744:8751   */\n      0x00\n        /* \"#utility.yul\":8773:8778   */\n      dup2\n        /* \"#utility.yul\":8762:8778   */\n      swap1\n      pop\n        /* \"#utility.yul\":8707:8784   */\n      swap2\n      swap1\n      pop\n      jump\t// out\n        /* \"#utility.yul\":8790:8924   */\n    tag_112:\n        /* \"#utility.yul\":8848:8857   */\n      0x00\n        /* \"#utility.yul\":8881:8918   */\n      tag_193\n        /* \"#utility.yul\":8912:8917   */\n      dup3\n        /* \"#utility.yul\":8881:8918   */\n      tag_194\n      jump\t// in\n    tag_193:\n        /* \"#utility.yul\":8868:8918   */\n      swap1\n      pop\n        /* \"#utility.yul\":8790:8924   */\n      swap2\n      swap1\n      pop\n      jump\t// out\n        /* \"#utility.yul\":8930:9056   */\n    tag_194:\n        /* \"#utility.yul\":8980:8989   */\n      0x00\n        /* \"#utility.yul\":9013:9050   */\n      tag_196\n        /* \"#utility.yul\":9044:9049   */\n      dup3\n        /* \"#utility.yul\":9013:9050   */\n      tag_197\n      jump\t// in\n    tag_196:\n        /* \"#utility.yul\":9000:9050   */\n      swap1\n      pop\n        /* \"#utility.yul\":8930:9056   */\n      swap2\n      swap1\n      pop\n      jump\t// out\n        /* \"#utility.yul\":9062:9175   */\n    tag_197:\n        /* \"#utility.yul\":9112:9121   */\n      0x00\n        /* \"#utility.yul\":9145:9169   */\n      tag_199\n        /* \"#utility.yul\":9163:9168   */\n      dup3\n        /* \"#utility.yul\":9145:9169   */\n      tag_186\n      jump\t// in\n    tag_199:\n        /* \"#utility.yul\":9132:9169   */\n      swap1\n      pop\n        /* \"#utility.yul\":9062:9175   */\n      swap2\n      swap1\n      pop\n      jump\t// out\n        /* \"#utility.yul\":9181:9335   */\n    tag_71:\n        /* \"#utility.yul\":9265:9271   */\n      dup3\n        /* \"#utility.yul\":9260:9263   */\n      dup2\n        /* \"#utility.yul\":9255:9258   */\n      dup4\n        /* \"#utility.yul\":9242:9272   */\n      calldatacopy\n        /* \"#utility.yul\":9327:9328   */\n      0x00\n        /* \"#utility.yul\":9318:9324   */\n      dup4\n        /* \"#utility.yul\":9313:9316   */\n      dup4\n        /* \"#utility.yul\":9309:9325   */\n      add\n        /* \"#utility.yul\":9302:9329   */\n      mstore\n        /* \"#utility.yul\":9181:9335   */\n      pop\n      pop\n      pop\n      jump\t// out\n        /* \"#utility.yul\":9341:9648   */\n    tag_124:\n        /* \"#utility.yul\":9409:9410   */\n      0x00\n        /* \"#utility.yul\":9419:9532   */\n    tag_202:\n        /* \"#utility.yul\":9433:9439   */\n      dup4\n        /* \"#utility.yul\":9430:9431   */\n      dup2\n        /* \"#utility.yul\":9427:9440   */\n      lt\n        /* \"#utility.yul\":9419:9532   */\n      iszero\n      tag_204\n      jumpi\n        /* \"#utility.yul\":9518:9519   */\n      dup1\n        /* \"#utility.yul\":9513:9516   */\n      dup3\n        /* \"#utility.yul\":9509:9520   */\n      add\n        /* \"#utility.yul\":9503:9521   */\n      mload\n        /* \"#utility.yul\":9499:9500   */\n      dup2\n        /* \"#utility.yul\":9494:9497   */\n      dup5\n        /* \"#utility.yul\":9490:9501   */\n      add\n        /* \"#utility.yul\":9483:9522   */\n      mstore\n        /* \"#utility.yul\":9455:9457   */\n      0x20\n        /* \"#utility.yul\":9452:9453   */\n      dup2\n        /* \"#utility.yul\":9448:9458   */\n      add\n        /* \"#utility.yul\":9443:9458   */\n      swap1\n      pop\n        /* \"#utility.yul\":9419:9532   */\n      jump(tag_202)\n    tag_204:\n        /* \"#utility.yul\":9550:9556   */\n      dup4\n        /* \"#utility.yul\":9547:9548   */\n      dup2\n        /* \"#utility.yul\":9544:9557   */\n      gt\n        /* \"#utility.yul\":9541:9642   */\n      iszero\n      tag_205\n      jumpi\n        /* \"#utility.yul\":9630:9631   */\n      0x00\n        /* \"#utility.yul\":9621:9627   */\n      dup5\n        /* \"#utility.yul\":9616:9619   */\n      dup5\n        /* \"#utility.yul\":9612:9628   */\n      add\n        /* \"#utility.yul\":9605:9632   */\n      mstore\n        /* \"#utility.yul\":9541:9642   */\n    tag_205:\n        /* \"#utility.yul\":9390:9648   */\n      pop\n        /* \"#utility.yul\":9341:9648   */\n      pop\n      pop\n      pop\n      jump\t// out\n        /* \"#utility.yul\":9654:9935   */\n    tag_164:\n        /* \"#utility.yul\":9737:9764   */\n      tag_207\n        /* \"#utility.yul\":9759:9763   */\n      dup3\n        /* \"#utility.yul\":9737:9764   */\n      tag_126\n      jump\t// in\n    tag_207:\n        /* \"#utility.yul\":9729:9735   */\n      dup2\n        /* \"#utility.yul\":9725:9765   */\n      add\n        /* \"#utility.yul\":9867:9873   */\n      dup2\n        /* \"#utility.yul\":9855:9865   */\n      dup2\n        /* \"#utility.yul\":9852:9874   */\n      lt\n        /* \"#utility.yul\":9831:9849   */\n      0xffffffffffffffff\n        /* \"#utility.yul\":9819:9829   */\n      dup3\n        /* \"#utility.yul\":9816:9850   */\n      gt\n        /* \"#utility.yul\":9813:9875   */\n      or\n        /* \"#utility.yul\":9810:9898   */\n      iszero\n      tag_208\n      jumpi\n        /* \"#utility.yul\":9878:9896   */\n      tag_209\n      tag_169\n      jump\t// in\n    tag_209:\n        /* \"#utility.yul\":9810:9898   */\n    tag_208:\n        /* \"#utility.yul\":9918:9928   */\n      dup1\n        /* \"#utility.yul\":9914:9916   */\n      0x40\n        /* \"#utility.yul\":9907:9929   */\n      mstore\n        /* \"#utility.yul\":9697:9935   */\n      pop\n        /* \"#utility.yul\":9654:9935   */\n      pop\n      pop\n      jump\t// out\n        /* \"#utility.yul\":9941:10121   */\n    tag_178:\n        /* \"#utility.yul\":9989:10066   */\n      0x4e487b7100000000000000000000000000000000000000000000000000000000\n        /* \"#utility.yul\":9986:9987   */\n      0x00\n        /* \"#utility.yul\":9979:10067   */\n      mstore\n        /* \"#utility.yul\":10086:10090   */\n      0x11\n        /* \"#utility.yul\":10083:10084   */\n      0x04\n        /* \"#utility.yul\":10076:10091   */\n      mstore\n        /* \"#utility.yul\":10110:10114   */\n      0x24\n        /* \"#utility.yul\":10107:10108   */\n      0x00\n        /* \"#utility.yul\":10100:10115   */\n      revert\n        /* \"#utility.yul\":10127:10307   */\n    tag_169:\n        /* \"#utility.yul\":10175:10252   */\n      0x4e487b7100000000000000000000000000000000000000000000000000000000\n        /* \"#utility.yul\":10172:10173   */\n      0x00\n        /* \"#utility.yul\":10165:10253   */\n      mstore\n        /* \"#utility.yul\":10272:10276   */\n      0x41\n        /* \"#utility.yul\":10269:10270   */\n      0x04\n        /* \"#utility.yul\":10262:10277   */\n      mstore\n        /* \"#utility.yul\":10296:10300   */\n      0x24\n        /* \"#utility.yul\":10293:10294   */\n      0x00\n        /* \"#utility.yul\":10286:10301   */\n      revert\n        /* \"#utility.yul\":10313:10430   */\n    tag_84:\n        /* \"#utility.yul\":10422:10423   */\n      0x00\n        /* \"#utility.yul\":10419:10420   */\n      dup1\n        /* \"#utility.yul\":10412:10424   */\n      revert\n        /* \"#utility.yul\":10436:10553   */\n    tag_69:\n        /* \"#utility.yul\":10545:10546   */\n      0x00\n        /* \"#utility.yul\":10542:10543   */\n      dup1\n        /* \"#utility.yul\":10535:10547   */\n      revert\n        /* \"#utility.yul\":10559:10676   */\n    tag_102:\n        /* \"#utility.yul\":10668:10669   */\n      0x00\n        /* \"#utility.yul\":10665:10666   */\n      dup1\n        /* \"#utility.yul\":10658:10670   */\n      revert\n        /* \"#utility.yul\":10682:10799   */\n    tag_93:\n        /* \"#utility.yul\":10791:10792   */\n      0x00\n        /* \"#utility.yul\":10788:10789   */\n      dup1\n        /* \"#utility.yul\":10781:10793   */\n      revert\n        /* \"#utility.yul\":10805:10907   */\n    tag_126:\n        /* \"#utility.yul\":10846:10852   */\n      0x00\n        /* \"#utility.yul\":10897:10899   */\n      0x1f\n        /* \"#utility.yul\":10893:10900   */\n      not\n        /* \"#utility.yul\":10888:10890   */\n      0x1f\n        /* \"#utility.yul\":10881:10886   */\n      dup4\n        /* \"#utility.yul\":10877:10891   */\n      add\n        /* \"#utility.yul\":10873:10901   */\n      and\n        /* \"#utility.yul\":10863:10901   */\n      swap1\n      pop\n        /* \"#utility.yul\":10805:10907   */\n      swap2\n      swap1\n      pop\n      jump\t// out\n        /* \"#utility.yul\":10913:11074   */\n    tag_131:\n        /* \"#utility.yul\":11053:11066   */\n      0x4e6f7420616c6c6f776564000000000000000000000000000000000000000000\n        /* \"#utility.yul\":11049:11050   */\n      0x00\n        /* \"#utility.yul\":11041:11047   */\n      dup3\n        /* \"#utility.yul\":11037:11051   */\n      add\n        /* \"#utility.yul\":11030:11067   */\n      mstore\n        /* \"#utility.yul\":10913:11074   */\n      pop\n      jump\t// out\n        /* \"#utility.yul\":11080:11251   */\n    tag_136:\n        /* \"#utility.yul\":11220:11243   */\n      0x4f6e6c79206f776e65722063616e206163636573730000000000000000000000\n        /* \"#utility.yul\":11216:11217   */\n      0x00\n        /* \"#utility.yul\":11208:11214   */\n      dup3\n        /* \"#utility.yul\":11204:11218   */\n      add\n        /* \"#utility.yul\":11197:11244   */\n      mstore\n        /* \"#utility.yul\":11080:11251   */\n      pop\n      jump\t// out\n        /* \"#utility.yul\":11257:11430   */\n    tag_141:\n        /* \"#utility.yul\":11397:11422   */\n      0x446f6e2774206861766520656e6f7567682066756e6473000000000000000000\n        /* \"#utility.yul\":11393:11394   */\n      0x00\n        /* \"#utility.yul\":11385:11391   */\n      dup3\n        /* \"#utility.yul\":11381:11395   */\n      add\n        /* \"#utility.yul\":11374:11423   */\n      mstore\n        /* \"#utility.yul\":11257:11430   */\n      pop\n      jump\t// out\n        /* \"#utility.yul\":11436:11558   */\n    tag_75:\n        /* \"#utility.yul\":11509:11533   */\n      tag_221\n        /* \"#utility.yul\":11527:11532   */\n      dup2\n        /* \"#utility.yul\":11509:11533   */\n      tag_116\n      jump\t// in\n    tag_221:\n        /* \"#utility.yul\":11502:11507   */\n      dup2\n        /* \"#utility.yul\":11499:11534   */\n      eq\n        /* \"#utility.yul\":11489:11552   */\n      tag_222\n      jumpi\n        /* \"#utility.yul\":11548:11549   */\n      0x00\n        /* \"#utility.yul\":11545:11546   */\n      dup1\n        /* \"#utility.yul\":11538:11550   */\n      revert\n        /* \"#utility.yul\":11489:11552   */\n    tag_222:\n        /* \"#utility.yul\":11436:11558   */\n      pop\n      jump\t// out\n        /* \"#utility.yul\":11564:11702   */\n    tag_79:\n        /* \"#utility.yul\":11645:11677   */\n      tag_224\n        /* \"#utility.yul\":11671:11676   */\n      dup2\n        /* \"#utility.yul\":11645:11677   */\n      tag_187\n      jump\t// in\n    tag_224:\n        /* \"#utility.yul\":11638:11643   */\n      dup2\n        /* \"#utility.yul\":11635:11678   */\n      eq\n        /* \"#utility.yul\":11625:11696   */\n      tag_225\n      jumpi\n        /* \"#utility.yul\":11692:11693   */\n      0x00\n        /* \"#utility.yul\":11689:11690   */\n      dup1\n        /* \"#utility.yul\":11682:11694   */\n      revert\n        /* \"#utility.yul\":11625:11696   */\n    tag_225:\n        /* \"#utility.yul\":11564:11702   */\n      pop\n      jump\t// out\n        /* \"#utility.yul\":11708:11830   */\n    tag_89:\n        /* \"#utility.yul\":11781:11805   */\n      tag_227\n        /* \"#utility.yul\":11799:11804   */\n      dup2\n        /* \"#utility.yul\":11781:11805   */\n      tag_145\n      jump\t// in\n    tag_227:\n        /* \"#utility.yul\":11774:11779   */\n      dup2\n        /* \"#utility.yul\":11771:11806   */\n      eq\n        /* \"#utility.yul\":11761:11824   */\n      tag_228\n      jumpi\n        /* \"#utility.yul\":11820:11821   */\n      0x00\n        /* \"#utility.yul\":11817:11818   */\n      dup1\n        /* \"#utility.yul\":11810:11822   */\n      revert\n        /* \"#utility.yul\":11761:11824   */\n    tag_228:\n        /* \"#utility.yul\":11708:11830   */\n      pop\n      jump\t// out\n\n    auxdata: 0xa264697066735822122033ce7c6f0d9b14df29b188b471be9d9cccdfa7b5ba827f626d26f8865f674e0964736f6c63430008070033\n}\n",
				"bytecode": {
					"linkReferences": {},
					"object": "608060405234801561001057600080fd5b50336000806101000a81548173ffffffffffffffffffffffffffffffffffffffff021916908373ffffffffffffffffffffffffffffffffffffffff160217905550610af7806100606000396000f3fe6080604052600436106100435760003560e01c80632b603c711461004f5780633495e9011461008c5780638da5cb5b146100b5578063f3c40c4b146100e05761004a565b3661004a57005b600080fd5b34801561005b57600080fd5b506100766004803603810190610071919061050c565b610109565b6040516100839190610770565b60405180910390f35b34801561009857600080fd5b506100b360048036038101906100ae9190610539565b610121565b005b3480156100c157600080fd5b506100ca6102e9565b6040516100d791906106b7565b60405180910390f35b3480156100ec57600080fd5b50610107600480360381019061010291906105a8565b61030d565b005b60016020528060005260406000206000915090505481565b8161012a6103f5565b80610174575080600160003373ffffffffffffffffffffffffffffffffffffffff1673ffffffffffffffffffffffffffffffffffffffff1681526020019081526020016000205410155b6101b3576040517f08c379a00000000000000000000000000000000000000000000000000000000081526004016101aa90610710565b60405180910390fd5b824710156101f6576040517f08c379a00000000000000000000000000000000000000000000000000000000081526004016101ed90610750565b60405180910390fd5b7f0d26b92533630e908cb95a1b2ed09291c6aa98f8da7094a2325f8c86cd45e5e4828585604051610229939291906106d2565b60405180910390a16000151561023d6103f5565b1515141561029c5782600160008673ffffffffffffffffffffffffffffffffffffffff1673ffffffffffffffffffffffffffffffffffffffff16815260200190815260200160002060008282546102949190610853565b925050819055505b8373ffffffffffffffffffffffffffffffffffffffff166108fc849081150290604051600060405180830381858888f193505050501580156102e2573d6000803e3d6000fd5b5050505050565b60008054906101000a900473ffffffffffffffffffffffffffffffffffffffff1681565b60008054906101000a900473ffffffffffffffffffffffffffffffffffffffff1673ffffffffffffffffffffffffffffffffffffffff163373ffffffffffffffffffffffffffffffffffffffff161461039b576040517f08c379a000000000000000000000000000000000000000000000000000000000815260040161039290610730565b60405180910390fd5b80600160008473ffffffffffffffffffffffffffffffffffffffff1673ffffffffffffffffffffffffffffffffffffffff16815260200190815260200160002060008282546103ea91906107fd565b925050819055505050565b60008060009054906101000a900473ffffffffffffffffffffffffffffffffffffffff1673ffffffffffffffffffffffffffffffffffffffff163373ffffffffffffffffffffffffffffffffffffffff161415610455576001905061045a565b600090505b90565b600061047061046b846107b0565b61078b565b90508281526020810184848401111561048c5761048b6109e1565b5b61049784828561090b565b509392505050565b6000813590506104ae81610a7c565b92915050565b6000813590506104c381610a93565b92915050565b600082601f8301126104de576104dd6109dc565b5b81356104ee84826020860161045d565b91505092915050565b60008135905061050681610aaa565b92915050565b600060208284031215610522576105216109eb565b5b60006105308482850161049f565b91505092915050565b600080600060608486031215610552576105516109eb565b5b6000610560868287016104b4565b9350506020610571868287016104f7565b925050604084013567ffffffffffffffff811115610592576105916109e6565b5b61059e868287016104c9565b9150509250925092565b600080604083850312156105bf576105be6109eb565b5b60006105cd8582860161049f565b92505060206105de858286016104f7565b9150509250929050565b6105f1816108d5565b82525050565b61060081610887565b82525050565b6000610611826107e1565b61061b81856107ec565b935061062b81856020860161091a565b610634816109f0565b840191505092915050565b600061064c600b836107ec565b915061065782610a01565b602082019050919050565b600061066f6015836107ec565b915061067a82610a2a565b602082019050919050565b60006106926017836107ec565b915061069d82610a53565b602082019050919050565b6106b1816108cb565b82525050565b60006020820190506106cc60008301846105f7565b92915050565b600060608201905081810360008301526106ec8186610606565b90506106fb60208301856105e8565b61070860408301846106a8565b949350505050565b600060208201905081810360008301526107298161063f565b9050919050565b6000602082019050818103600083015261074981610662565b9050919050565b6000602082019050818103600083015261076981610685565b9050919050565b600060208201905061078560008301846106a8565b92915050565b60006107956107a6565b90506107a1828261094d565b919050565b6000604051905090565b600067ffffffffffffffff8211156107cb576107ca6109ad565b5b6107d4826109f0565b9050602081019050919050565b600081519050919050565b600082825260208201905092915050565b6000610808826108cb565b9150610813836108cb565b9250827fffffffffffffffffffffffffffffffffffffffffffffffffffffffffffffffff038211156108485761084761097e565b5b828201905092915050565b600061085e826108cb565b9150610869836108cb565b92508282101561087c5761087b61097e565b5b828203905092915050565b6000610892826108ab565b9050919050565b60006108a4826108ab565b9050919050565b600073ffffffffffffffffffffffffffffffffffffffff82169050919050565b6000819050919050565b60006108e0826108e7565b9050919050565b60006108f2826108f9565b9050919050565b6000610904826108ab565b9050919050565b82818337600083830152505050565b60005b8381101561093857808201518184015260208101905061091d565b83811115610947576000848401525b50505050565b610956826109f0565b810181811067ffffffffffffffff82111715610975576109746109ad565b5b80604052505050565b7f4e487b7100000000000000000000000000000000000000000000000000000000600052601160045260246000fd5b7f4e487b7100000000000000000000000000000000000000000000000000000000600052604160045260246000fd5b600080fd5b600080fd5b600080fd5b600080fd5b6000601f19601f8301169050919050565b7f4e6f7420616c6c6f776564000000000000000000000000000000000000000000600082015250565b7f4f6e6c79206f776e65722063616e206163636573730000000000000000000000600082015250565b7f446f6e2774206861766520656e6f7567682066756e6473000000000000000000600082015250565b610a8581610887565b8114610a9057600080fd5b50565b610a9c81610899565b8114610aa757600080fd5b50565b610ab3816108cb565b8114610abe57600080fd5b5056fea264697066735822122033ce7c6f0d9b14df29b188b471be9d9cccdfa7b5ba827f626d26f8865f674e0964736f6c63430008070033",
					"opcodes": "PUSH1 0x80 PUSH1 0x40 MSTORE CALLVALUE DUP1 ISZERO PUSH2 0x10 JUMPI PUSH1 0x0 DUP1 REVERT JUMPDEST POP CALLER PUSH1 0x0 DUP1 PUSH2 0x100 EXP DUP2 SLOAD DUP2 PUSH20 0xFFFFFFFFFFFFFFFFFFFFFFFFFFFFFFFFFFFFFFFF MUL NOT AND SWAP1 DUP4 PUSH20 0xFFFFFFFFFFFFFFFFFFFFFFFFFFFFFFFFFFFFFFFF AND MUL OR SWAP1 SSTORE POP PUSH2 0xAF7 DUP1 PUSH2 0x60 PUSH1 0x0 CODECOPY PUSH1 0x0 RETURN INVALID PUSH1 0x80 PUSH1 0x40 MSTORE PUSH1 0x4 CALLDATASIZE LT PUSH2 0x43 JUMPI PUSH1 0x0 CALLDATALOAD PUSH1 0xE0 SHR DUP1 PUSH4 0x2B603C71 EQ PUSH2 0x4F JUMPI DUP1 PUSH4 0x3495E901 EQ PUSH2 0x8C JUMPI DUP1 PUSH4 0x8DA5CB5B EQ PUSH2 0xB5 JUMPI DUP1 PUSH4 0xF3C40C4B EQ PUSH2 0xE0 JUMPI PUSH2 0x4A JUMP JUMPDEST CALLDATASIZE PUSH2 0x4A JUMPI STOP JUMPDEST PUSH1 0x0 DUP1 REVERT JUMPDEST CALLVALUE DUP1 ISZERO PUSH2 0x5B JUMPI PUSH1 0x0 DUP1 REVERT JUMPDEST POP PUSH2 0x76 PUSH1 0x4 DUP1 CALLDATASIZE SUB DUP2 ADD SWAP1 PUSH2 0x71 SWAP2 SWAP1 PUSH2 0x50C JUMP JUMPDEST PUSH2 0x109 JUMP JUMPDEST PUSH1 0x40 MLOAD PUSH2 0x83 SWAP2 SWAP1 PUSH2 0x770 JUMP JUMPDEST PUSH1 0x40 MLOAD DUP1 SWAP2 SUB SWAP1 RETURN JUMPDEST CALLVALUE DUP1 ISZERO PUSH2 0x98 JUMPI PUSH1 0x0 DUP1 REVERT JUMPDEST POP PUSH2 0xB3 PUSH1 0x4 DUP1 CALLDATASIZE SUB DUP2 ADD SWAP1 PUSH2 0xAE SWAP2 SWAP1 PUSH2 0x539 JUMP JUMPDEST PUSH2 0x121 JUMP JUMPDEST STOP JUMPDEST CALLVALUE DUP1 ISZERO PUSH2 0xC1 JUMPI PUSH1 0x0 DUP1 REVERT JUMPDEST POP PUSH2 0xCA PUSH2 0x2E9 JUMP JUMPDEST PUSH1 0x40 MLOAD PUSH2 0xD7 SWAP2 SWAP1 PUSH2 0x6B7 JUMP JUMPDEST PUSH1 0x40 MLOAD DUP1 SWAP2 SUB SWAP1 RETURN JUMPDEST CALLVALUE DUP1 ISZERO PUSH2 0xEC JUMPI PUSH1 0x0 DUP1 REVERT JUMPDEST POP PUSH2 0x107 PUSH1 0x4 DUP1 CALLDATASIZE SUB DUP2 ADD SWAP1 PUSH2 0x102 SWAP2 SWAP1 PUSH2 0x5A8 JUMP JUMPDEST PUSH2 0x30D JUMP JUMPDEST STOP JUMPDEST PUSH1 0x1 PUSH1 0x20 MSTORE DUP1 PUSH1 0x0 MSTORE PUSH1 0x40 PUSH1 0x0 KECCAK256 PUSH1 0x0 SWAP2 POP SWAP1 POP SLOAD DUP2 JUMP JUMPDEST DUP2 PUSH2 0x12A PUSH2 0x3F5 JUMP JUMPDEST DUP1 PUSH2 0x174 JUMPI POP DUP1 PUSH1 0x1 PUSH1 0x0 CALLER PUSH20 0xFFFFFFFFFFFFFFFFFFFFFFFFFFFFFFFFFFFFFFFF AND PUSH20 0xFFFFFFFFFFFFFFFFFFFFFFFFFFFFFFFFFFFFFFFF AND DUP2 MSTORE PUSH1 0x20 ADD SWAP1 DUP2 MSTORE PUSH1 0x20 ADD PUSH1 0x0 KECCAK256 SLOAD LT ISZERO JUMPDEST PUSH2 0x1B3 JUMPI PUSH1 0x40 MLOAD PUSH32 0x8C379A000000000000000000000000000000000000000000000000000000000 DUP2 MSTORE PUSH1 0x4 ADD PUSH2 0x1AA SWAP1 PUSH2 0x710 JUMP JUMPDEST PUSH1 0x40 MLOAD DUP1 SWAP2 SUB SWAP1 REVERT JUMPDEST DUP3 SELFBALANCE LT ISZERO PUSH2 0x1F6 JUMPI PUSH1 0x40 MLOAD PUSH32 0x8C379A000000000000000000000000000000000000000000000000000000000 DUP2 MSTORE PUSH1 0x4 ADD PUSH2 0x1ED SWAP1 PUSH2 0x750 JUMP JUMPDEST PUSH1 0x40 MLOAD DUP1 SWAP2 SUB SWAP1 REVERT JUMPDEST PUSH32 0xD26B92533630E908CB95A1B2ED09291C6AA98F8DA7094A2325F8C86CD45E5E4 DUP3 DUP6 DUP6 PUSH1 0x40 MLOAD PUSH2 0x229 SWAP4 SWAP3 SWAP2 SWAP1 PUSH2 0x6D2 JUMP JUMPDEST PUSH1 0x40 MLOAD DUP1 SWAP2 SUB SWAP1 LOG1 PUSH1 0x0 ISZERO ISZERO PUSH2 0x23D PUSH2 0x3F5 JUMP JUMPDEST ISZERO ISZERO EQ ISZERO PUSH2 0x29C JUMPI DUP3 PUSH1 0x1 PUSH1 0x0 DUP7 PUSH20 0xFFFFFFFFFFFFFFFFFFFFFFFFFFFFFFFFFFFFFFFF AND PUSH20 0xFFFFFFFFFFFFFFFFFFFFFFFFFFFFFFFFFFFFFFFF AND DUP2 MSTORE PUSH1 0x20 ADD SWAP1 DUP2 MSTORE PUSH1 0x20 ADD PUSH1 0x0 KECCAK256 PUSH1 0x0 DUP3 DUP3 SLOAD PUSH2 0x294 SWAP2 SWAP1 PUSH2 0x853 JUMP JUMPDEST SWAP3 POP POP DUP2 SWAP1 SSTORE POP JUMPDEST DUP4 PUSH20 0xFFFFFFFFFFFFFFFFFFFFFFFFFFFFFFFFFFFFFFFF AND PUSH2 0x8FC DUP5 SWAP1 DUP2 ISZERO MUL SWAP1 PUSH1 0x40 MLOAD PUSH1 0x0 PUSH1 0x40 MLOAD DUP1 DUP4 SUB DUP2 DUP6 DUP9 DUP9 CALL SWAP4 POP POP POP POP ISZERO DUP1 ISZERO PUSH2 0x2E2 JUMPI RETURNDATASIZE PUSH1 0x0 DUP1 RETURNDATACOPY RETURNDATASIZE PUSH1 0x0 REVERT JUMPDEST POP POP POP POP POP JUMP JUMPDEST PUSH1 0x0 DUP1 SLOAD SWAP1 PUSH2 0x100 EXP SWAP1 DIV PUSH20 0xFFFFFFFFFFFFFFFFFFFFFFFFFFFFFFFFFFFFFFFF AND DUP2 JUMP JUMPDEST PUSH1 0x0 DUP1 SLOAD SWAP1 PUSH2 0x100 EXP SWAP1 DIV PUSH20 0xFFFFFFFFFFFFFFFFFFFFFFFFFFFFFFFFFFFFFFFF AND PUSH20 0xFFFFFFFFFFFFFFFFFFFFFFFFFFFFFFFFFFFFFFFF AND CALLER PUSH20 0xFFFFFFFFFFFFFFFFFFFFFFFFFFFFFFFFFFFFFFFF AND EQ PUSH2 0x39B JUMPI PUSH1 0x40 MLOAD PUSH32 0x8C379A000000000000000000000000000000000000000000000000000000000 DUP2 MSTORE PUSH1 0x4 ADD PUSH2 0x392 SWAP1 PUSH2 0x730 JUMP JUMPDEST PUSH1 0x40 MLOAD DUP1 SWAP2 SUB SWAP1 REVERT JUMPDEST DUP1 PUSH1 0x1 PUSH1 0x0 DUP5 PUSH20 0xFFFFFFFFFFFFFFFFFFFFFFFFFFFFFFFFFFFFFFFF AND PUSH20 0xFFFFFFFFFFFFFFFFFFFFFFFFFFFFFFFFFFFFFFFF AND DUP2 MSTORE PUSH1 0x20 ADD SWAP1 DUP2 MSTORE PUSH1 0x20 ADD PUSH1 0x0 KECCAK256 PUSH1 0x0 DUP3 DUP3 SLOAD PUSH2 0x3EA SWAP2 SWAP1 PUSH2 0x7FD JUMP JUMPDEST SWAP3 POP POP DUP2 SWAP1 SSTORE POP POP POP JUMP JUMPDEST PUSH1 0x0 DUP1 PUSH1 0x0 SWAP1 SLOAD SWAP1 PUSH2 0x100 EXP SWAP1 DIV PUSH20 0xFFFFFFFFFFFFFFFFFFFFFFFFFFFFFFFFFFFFFFFF AND PUSH20 0xFFFFFFFFFFFFFFFFFFFFFFFFFFFFFFFFFFFFFFFF AND CALLER PUSH20 0xFFFFFFFFFFFFFFFFFFFFFFFFFFFFFFFFFFFFFFFF AND EQ ISZERO PUSH2 0x455 JUMPI PUSH1 0x1 SWAP1 POP PUSH2 0x45A JUMP JUMPDEST PUSH1 0x0 SWAP1 POP JUMPDEST SWAP1 JUMP JUMPDEST PUSH1 0x0 PUSH2 0x470 PUSH2 0x46B DUP5 PUSH2 0x7B0 JUMP JUMPDEST PUSH2 0x78B JUMP JUMPDEST SWAP1 POP DUP3 DUP2 MSTORE PUSH1 0x20 DUP2 ADD DUP5 DUP5 DUP5 ADD GT ISZERO PUSH2 0x48C JUMPI PUSH2 0x48B PUSH2 0x9E1 JUMP JUMPDEST JUMPDEST PUSH2 0x497 DUP5 DUP3 DUP6 PUSH2 0x90B JUMP JUMPDEST POP SWAP4 SWAP3 POP POP POP JUMP JUMPDEST PUSH1 0x0 DUP2 CALLDATALOAD SWAP1 POP PUSH2 0x4AE DUP2 PUSH2 0xA7C JUMP JUMPDEST SWAP3 SWAP2 POP POP JUMP JUMPDEST PUSH1 0x0 DUP2 CALLDATALOAD SWAP1 POP PUSH2 0x4C3 DUP2 PUSH2 0xA93 JUMP JUMPDEST SWAP3 SWAP2 POP POP JUMP JUMPDEST PUSH1 0x0 DUP3 PUSH1 0x1F DUP4 ADD SLT PUSH2 0x4DE JUMPI PUSH2 0x4DD PUSH2 0x9DC JUMP JUMPDEST JUMPDEST DUP2 CALLDATALOAD PUSH2 0x4EE DUP5 DUP3 PUSH1 0x20 DUP7 ADD PUSH2 0x45D JUMP JUMPDEST SWAP2 POP POP SWAP3 SWAP2 POP POP JUMP JUMPDEST PUSH1 0x0 DUP2 CALLDATALOAD SWAP1 POP PUSH2 0x506 DUP2 PUSH2 0xAAA JUMP JUMPDEST SWAP3 SWAP2 POP POP JUMP JUMPDEST PUSH1 0x0 PUSH1 0x20 DUP3 DUP5 SUB SLT ISZERO PUSH2 0x522 JUMPI PUSH2 0x521 PUSH2 0x9EB JUMP JUMPDEST JUMPDEST PUSH1 0x0 PUSH2 0x530 DUP5 DUP3 DUP6 ADD PUSH2 0x49F JUMP JUMPDEST SWAP2 POP POP SWAP3 SWAP2 POP POP JUMP JUMPDEST PUSH1 0x0 DUP1 PUSH1 0x0 PUSH1 0x60 DUP5 DUP7 SUB SLT ISZERO PUSH2 0x552 JUMPI PUSH2 0x551 PUSH2 0x9EB JUMP JUMPDEST JUMPDEST PUSH1 0x0 PUSH2 0x560 DUP7 DUP3 DUP8 ADD PUSH2 0x4B4 JUMP JUMPDEST SWAP4 POP POP PUSH1 0x20 PUSH2 0x571 DUP7 DUP3 DUP8 ADD PUSH2 0x4F7 JUMP JUMPDEST SWAP3 POP POP PUSH1 0x40 DUP5 ADD CALLDATALOAD PUSH8 0xFFFFFFFFFFFFFFFF DUP2 GT ISZERO PUSH2 0x592 JUMPI PUSH2 0x591 PUSH2 0x9E6 JUMP JUMPDEST JUMPDEST PUSH2 0x59E DUP7 DUP3 DUP8 ADD PUSH2 0x4C9 JUMP JUMPDEST SWAP2 POP POP SWAP3 POP SWAP3 POP SWAP3 JUMP JUMPDEST PUSH1 0x0 DUP1 PUSH1 0x40 DUP4 DUP6 SUB SLT ISZERO PUSH2 0x5BF JUMPI PUSH2 0x5BE PUSH2 0x9EB JUMP JUMPDEST JUMPDEST PUSH1 0x0 PUSH2 0x5CD DUP6 DUP3 DUP7 ADD PUSH2 0x49F JUMP JUMPDEST SWAP3 POP POP PUSH1 0x20 PUSH2 0x5DE DUP6 DUP3 DUP7 ADD PUSH2 0x4F7 JUMP JUMPDEST SWAP2 POP POP SWAP3 POP SWAP3 SWAP1 POP JUMP JUMPDEST PUSH2 0x5F1 DUP2 PUSH2 0x8D5 JUMP JUMPDEST DUP3 MSTORE POP POP JUMP JUMPDEST PUSH2 0x600 DUP2 PUSH2 0x887 JUMP JUMPDEST DUP3 MSTORE POP POP JUMP JUMPDEST PUSH1 0x0 PUSH2 0x611 DUP3 PUSH2 0x7E1 JUMP JUMPDEST PUSH2 0x61B DUP2 DUP6 PUSH2 0x7EC JUMP JUMPDEST SWAP4 POP PUSH2 0x62B DUP2 DUP6 PUSH1 0x20 DUP7 ADD PUSH2 0x91A JUMP JUMPDEST PUSH2 0x634 DUP2 PUSH2 0x9F0 JUMP JUMPDEST DUP5 ADD SWAP2 POP POP SWAP3 SWAP2 POP POP JUMP JUMPDEST PUSH1 0x0 PUSH2 0x64C PUSH1 0xB DUP4 PUSH2 0x7EC JUMP JUMPDEST SWAP2 POP PUSH2 0x657 DUP3 PUSH2 0xA01 JUMP JUMPDEST PUSH1 0x20 DUP3 ADD SWAP1 POP SWAP2 SWAP1 POP JUMP JUMPDEST PUSH1 0x0 PUSH2 0x66F PUSH1 0x15 DUP4 PUSH2 0x7EC JUMP JUMPDEST SWAP2 POP PUSH2 0x67A DUP3 PUSH2 0xA2A JUMP JUMPDEST PUSH1 0x20 DUP3 ADD SWAP1 POP SWAP2 SWAP1 POP JUMP JUMPDEST PUSH1 0x0 PUSH2 0x692 PUSH1 0x17 DUP4 PUSH2 0x7EC JUMP JUMPDEST SWAP2 POP PUSH2 0x69D DUP3 PUSH2 0xA53 JUMP JUMPDEST PUSH1 0x20 DUP3 ADD SWAP1 POP SWAP2 SWAP1 POP JUMP JUMPDEST PUSH2 0x6B1 DUP2 PUSH2 0x8CB JUMP JUMPDEST DUP3 MSTORE POP POP JUMP JUMPDEST PUSH1 0x0 PUSH1 0x20 DUP3 ADD SWAP1 POP PUSH2 0x6CC PUSH1 0x0 DUP4 ADD DUP5 PUSH2 0x5F7 JUMP JUMPDEST SWAP3 SWAP2 POP POP JUMP JUMPDEST PUSH1 0x0 PUSH1 0x60 DUP3 ADD SWAP1 POP DUP2 DUP2 SUB PUSH1 0x0 DUP4 ADD MSTORE PUSH2 0x6EC DUP2 DUP7 PUSH2 0x606 JUMP JUMPDEST SWAP1 POP PUSH2 0x6FB PUSH1 0x20 DUP4 ADD DUP6 PUSH2 0x5E8 JUMP JUMPDEST PUSH2 0x708 PUSH1 0x40 DUP4 ADD DUP5 PUSH2 0x6A8 JUMP JUMPDEST SWAP5 SWAP4 POP POP POP POP JUMP JUMPDEST PUSH1 0x0 PUSH1 0x20 DUP3 ADD SWAP1 POP DUP2 DUP2 SUB PUSH1 0x0 DUP4 ADD MSTORE PUSH2 0x729 DUP2 PUSH2 0x63F JUMP JUMPDEST SWAP1 POP SWAP2 SWAP1 POP JUMP JUMPDEST PUSH1 0x0 PUSH1 0x20 DUP3 ADD SWAP1 POP DUP2 DUP2 SUB PUSH1 0x0 DUP4 ADD MSTORE PUSH2 0x749 DUP2 PUSH2 0x662 JUMP JUMPDEST SWAP1 POP SWAP2 SWAP1 POP JUMP JUMPDEST PUSH1 0x0 PUSH1 0x20 DUP3 ADD SWAP1 POP DUP2 DUP2 SUB PUSH1 0x0 DUP4 ADD MSTORE PUSH2 0x769 DUP2 PUSH2 0x685 JUMP JUMPDEST SWAP1 POP SWAP2 SWAP1 POP JUMP JUMPDEST PUSH1 0x0 PUSH1 0x20 DUP3 ADD SWAP1 POP PUSH2 0x785 PUSH1 0x0 DUP4 ADD DUP5 PUSH2 0x6A8 JUMP JUMPDEST SWAP3 SWAP2 POP POP JUMP JUMPDEST PUSH1 0x0 PUSH2 0x795 PUSH2 0x7A6 JUMP JUMPDEST SWAP1 POP PUSH2 0x7A1 DUP3 DUP3 PUSH2 0x94D JUMP JUMPDEST SWAP2 SWAP1 POP JUMP JUMPDEST PUSH1 0x0 PUSH1 0x40 MLOAD SWAP1 POP SWAP1 JUMP JUMPDEST PUSH1 0x0 PUSH8 0xFFFFFFFFFFFFFFFF DUP3 GT ISZERO PUSH2 0x7CB JUMPI PUSH2 0x7CA PUSH2 0x9AD JUMP JUMPDEST JUMPDEST PUSH2 0x7D4 DUP3 PUSH2 0x9F0 JUMP JUMPDEST SWAP1 POP PUSH1 0x20 DUP2 ADD SWAP1 POP SWAP2 SWAP1 POP JUMP JUMPDEST PUSH1 0x0 DUP2 MLOAD SWAP1 POP SWAP2 SWAP1 POP JUMP JUMPDEST PUSH1 0x0 DUP3 DUP3 MSTORE PUSH1 0x20 DUP3 ADD SWAP1 POP SWAP3 SWAP2 POP POP JUMP JUMPDEST PUSH1 0x0 PUSH2 0x808 DUP3 PUSH2 0x8CB JUMP JUMPDEST SWAP2 POP PUSH2 0x813 DUP4 PUSH2 0x8CB JUMP JUMPDEST SWAP3 POP DUP3 PUSH32 0xFFFFFFFFFFFFFFFFFFFFFFFFFFFFFFFFFFFFFFFFFFFFFFFFFFFFFFFFFFFFFFFF SUB DUP3 GT ISZERO PUSH2 0x848 JUMPI PUSH2 0x847 PUSH2 0x97E JUMP JUMPDEST JUMPDEST DUP3 DUP3 ADD SWAP1 POP SWAP3 SWAP2 POP POP JUMP JUMPDEST PUSH1 0x0 PUSH2 0x85E DUP3 PUSH2 0x8CB JUMP JUMPDEST SWAP2 POP PUSH2 0x869 DUP4 PUSH2 0x8CB JUMP JUMPDEST SWAP3 POP DUP3 DUP3 LT ISZERO PUSH2 0x87C JUMPI PUSH2 0x87B PUSH2 0x97E JUMP JUMPDEST JUMPDEST DUP3 DUP3 SUB SWAP1 POP SWAP3 SWAP2 POP POP JUMP JUMPDEST PUSH1 0x0 PUSH2 0x892 DUP3 PUSH2 0x8AB JUMP JUMPDEST SWAP1 POP SWAP2 SWAP1 POP JUMP JUMPDEST PUSH1 0x0 PUSH2 0x8A4 DUP3 PUSH2 0x8AB JUMP JUMPDEST SWAP1 POP SWAP2 SWAP1 POP JUMP JUMPDEST PUSH1 0x0 PUSH20 0xFFFFFFFFFFFFFFFFFFFFFFFFFFFFFFFFFFFFFFFF DUP3 AND SWAP1 POP SWAP2 SWAP1 POP JUMP JUMPDEST PUSH1 0x0 DUP2 SWAP1 POP SWAP2 SWAP1 POP JUMP JUMPDEST PUSH1 0x0 PUSH2 0x8E0 DUP3 PUSH2 0x8E7 JUMP JUMPDEST SWAP1 POP SWAP2 SWAP1 POP JUMP JUMPDEST PUSH1 0x0 PUSH2 0x8F2 DUP3 PUSH2 0x8F9 JUMP JUMPDEST SWAP1 POP SWAP2 SWAP1 POP JUMP JUMPDEST PUSH1 0x0 PUSH2 0x904 DUP3 PUSH2 0x8AB JUMP JUMPDEST SWAP1 POP SWAP2 SWAP1 POP JUMP JUMPDEST DUP3 DUP2 DUP4 CALLDATACOPY PUSH1 0x0 DUP4 DUP4 ADD MSTORE POP POP POP JUMP JUMPDEST PUSH1 0x0 JUMPDEST DUP4 DUP2 LT ISZERO PUSH2 0x938 JUMPI DUP1 DUP3 ADD MLOAD DUP2 DUP5 ADD MSTORE PUSH1 0x20 DUP2 ADD SWAP1 POP PUSH2 0x91D JUMP JUMPDEST DUP4 DUP2 GT ISZERO PUSH2 0x947 JUMPI PUSH1 0x0 DUP5 DUP5 ADD MSTORE JUMPDEST POP POP POP POP JUMP JUMPDEST PUSH2 0x956 DUP3 PUSH2 0x9F0 JUMP JUMPDEST DUP2 ADD DUP2 DUP2 LT PUSH8 0xFFFFFFFFFFFFFFFF DUP3 GT OR ISZERO PUSH2 0x975 JUMPI PUSH2 0x974 PUSH2 0x9AD JUMP JUMPDEST JUMPDEST DUP1 PUSH1 0x40 MSTORE POP POP POP JUMP JUMPDEST PUSH32 0x4E487B7100000000000000000000000000000000000000000000000000000000 PUSH1 0x0 MSTORE PUSH1 0x11 PUSH1 0x4 MSTORE PUSH1 0x24 PUSH1 0x0 REVERT JUMPDEST PUSH32 0x4E487B7100000000000000000000000000000000000000000000000000000000 PUSH1 0x0 MSTORE PUSH1 0x41 PUSH1 0x4 MSTORE PUSH1 0x24 PUSH1 0x0 REVERT JUMPDEST PUSH1 0x0 DUP1 REVERT JUMPDEST PUSH1 0x0 DUP1 REVERT JUMPDEST PUSH1 0x0 DUP1 REVERT JUMPDEST PUSH1 0x0 DUP1 REVERT JUMPDEST PUSH1 0x0 PUSH1 0x1F NOT PUSH1 0x1F DUP4 ADD AND SWAP1 POP SWAP2 SWAP1 POP JUMP JUMPDEST PUSH32 0x4E6F7420616C6C6F776564000000000000000000000000000000000000000000 PUSH1 0x0 DUP3 ADD MSTORE POP JUMP JUMPDEST PUSH32 0x4F6E6C79206F776E65722063616E206163636573730000000000000000000000 PUSH1 0x0 DUP3 ADD MSTORE POP JUMP JUMPDEST PUSH32 0x446F6E2774206861766520656E6F7567682066756E6473000000000000000000 PUSH1 0x0 DUP3 ADD MSTORE POP JUMP JUMPDEST PUSH2 0xA85 DUP2 PUSH2 0x887 JUMP JUMPDEST DUP2 EQ PUSH2 0xA90 JUMPI PUSH1 0x0 DUP1 REVERT JUMPDEST POP JUMP JUMPDEST PUSH2 0xA9C DUP2 PUSH2 0x899 JUMP JUMPDEST DUP2 EQ PUSH2 0xAA7 JUMPI PUSH1 0x0 DUP1 REVERT JUMPDEST POP JUMP JUMPDEST PUSH2 0xAB3 DUP2 PUSH2 0x8CB JUMP JUMPDEST DUP2 EQ PUSH2 0xABE JUMPI PUSH1 0x0 DUP1 REVERT JUMPDEST POP JUMP INVALID LOG2 PUSH5 0x6970667358 0x22 SLT KECCAK256 CALLER 0xCE PUSH29 0x6F0D9B14DF29B188B471BE9D9CCCDFA7B5BA827F626D26F8865F674E09 PUSH5 0x736F6C6343 STOP ADDMOD SMOD STOP CALLER "
				},
				"gasEstimates": {
					"creation": {
						"codeDepositCost": "561400",
						"executionCost": "24860",
						"totalCost": "586260"
					},
					"external": {
						"addAllowance(address,uint256)": "infinite",
						"allowances(address)": "2792",
						"owner()": "2533",
						"withdrawMoney(address,uint256,string)": "infinite"
					},
					"internal": {
						"isOwner()": "2207"
					}
				},
				"methodIdentifiers": {
					"addAllowance(address,uint256)": "f3c40c4b",
					"allowances(address)": "2b603c71",
					"owner()": "8da5cb5b",
					"withdrawMoney(address,uint256,string)": "3495e901"
				}
			},
			"storageLayout": {
				"storage": [
					{
						"astId": 3,
						"contract": "Aution.sol:allowanceContract",
						"label": "owner",
						"offset": 0,
						"slot": "0",
						"type": "t_address"
					},
					{
						"astId": 7,
						"contract": "Aution.sol:allowanceContract",
						"label": "allowances",
						"offset": 0,
						"slot": "1",
						"type": "t_mapping(t_address,t_uint256)"
					}
				],
				"types": {
					"t_address": {
						"encoding": "inplace",
						"label": "address",
						"numberOfBytes": "20"
					},
					"t_mapping(t_address,t_uint256)": {
						"encoding": "mapping",
						"key": "t_address",
						"label": "mapping(address => uint256)",
						"numberOfBytes": "32",
						"value": "t_uint256"
					},
					"t_uint256": {
						"encoding": "inplace",
						"label": "uint256",
						"numberOfBytes": "32"
					}
				}
			},
			"userdoc": {
				"kind": "user",
				"methods": {},
				"version": 1
			}
		}
	}
}